{
  "_format": "hh-sol-artifact-1",
  "contractName": "UpOnly",
  "sourceName": "contracts/UpOnly.sol",
  "abi": [
    {
      "inputs": [],
      "stateMutability": "nonpayable",
      "type": "constructor"
    },
    {
      "inputs": [
        {
          "internalType": "address",
          "name": "sender",
          "type": "address"
        },
        {
          "internalType": "uint256",
          "name": "tokenId",
          "type": "uint256"
        },
        {
          "internalType": "address",
          "name": "owner",
          "type": "address"
        }
      ],
      "name": "ERC721IncorrectOwner",
      "type": "error"
    },
    {
      "inputs": [
        {
          "internalType": "address",
          "name": "operator",
          "type": "address"
        },
        {
          "internalType": "uint256",
          "name": "tokenId",
          "type": "uint256"
        }
      ],
      "name": "ERC721InsufficientApproval",
      "type": "error"
    },
    {
      "inputs": [
        {
          "internalType": "address",
          "name": "approver",
          "type": "address"
        }
      ],
      "name": "ERC721InvalidApprover",
      "type": "error"
    },
    {
      "inputs": [
        {
          "internalType": "address",
          "name": "operator",
          "type": "address"
        }
      ],
      "name": "ERC721InvalidOperator",
      "type": "error"
    },
    {
      "inputs": [
        {
          "internalType": "address",
          "name": "owner",
          "type": "address"
        }
      ],
      "name": "ERC721InvalidOwner",
      "type": "error"
    },
    {
      "inputs": [
        {
          "internalType": "address",
          "name": "receiver",
          "type": "address"
        }
      ],
      "name": "ERC721InvalidReceiver",
      "type": "error"
    },
    {
      "inputs": [
        {
          "internalType": "address",
          "name": "sender",
          "type": "address"
        }
      ],
      "name": "ERC721InvalidSender",
      "type": "error"
    },
    {
      "inputs": [
        {
          "internalType": "uint256",
          "name": "tokenId",
          "type": "uint256"
        }
      ],
      "name": "ERC721NonexistentToken",
      "type": "error"
    },
    {
      "inputs": [],
      "name": "ExceedsMaxMintAmount",
      "type": "error"
    },
    {
      "inputs": [],
      "name": "ExceedsMaxSupply",
      "type": "error"
    },
    {
      "inputs": [],
      "name": "InsufficientPayment",
      "type": "error"
    },
    {
      "inputs": [],
      "name": "InvalidTransfer",
      "type": "error"
    },
    {
      "inputs": [],
      "name": "OfferTooLate",
      "type": "error"
    },
    {
      "inputs": [],
      "name": "OfferTooLow",
      "type": "error"
    },
    {
      "inputs": [],
      "name": "ReentrancyGuardReentrantCall",
      "type": "error"
    },
    {
      "inputs": [],
      "name": "SameAddress",
      "type": "error"
    },
    {
      "inputs": [],
      "name": "Unauthorized",
      "type": "error"
    },
    {
      "inputs": [],
      "name": "ZeroAddress",
      "type": "error"
    },
    {
      "inputs": [],
      "name": "ZeroMintAmount",
      "type": "error"
    },
    {
      "anonymous": false,
      "inputs": [
        {
          "indexed": true,
          "internalType": "address",
          "name": "owner",
          "type": "address"
        },
        {
          "indexed": true,
          "internalType": "address",
          "name": "approved",
          "type": "address"
        },
        {
          "indexed": true,
          "internalType": "uint256",
          "name": "tokenId",
          "type": "uint256"
        }
      ],
      "name": "Approval",
      "type": "event"
    },
    {
      "anonymous": false,
      "inputs": [
        {
          "indexed": true,
          "internalType": "address",
          "name": "owner",
          "type": "address"
        },
        {
          "indexed": true,
          "internalType": "address",
          "name": "operator",
          "type": "address"
        },
        {
          "indexed": false,
          "internalType": "bool",
          "name": "approved",
          "type": "bool"
        }
      ],
      "name": "ApprovalForAll",
      "type": "event"
    },
    {
      "anonymous": false,
      "inputs": [],
      "name": "ContractURIUpdated",
      "type": "event"
    },
    {
      "anonymous": false,
      "inputs": [
        {
          "indexed": true,
          "internalType": "uint256",
          "name": "token",
          "type": "uint256"
        },
        {
          "indexed": true,
          "internalType": "address",
          "name": "owner",
          "type": "address"
        },
        {
          "indexed": false,
          "internalType": "uint256",
          "name": "amount",
          "type": "uint256"
        },
        {
          "indexed": false,
          "internalType": "uint256",
          "name": "cost",
          "type": "uint256"
        },
        {
          "indexed": false,
          "internalType": "uint256",
          "name": "supply",
          "type": "uint256"
        }
      ],
      "name": "Mint",
      "type": "event"
    },
    {
      "anonymous": false,
      "inputs": [
        {
          "indexed": true,
          "internalType": "uint256",
          "name": "token",
          "type": "uint256"
        },
        {
          "indexed": true,
          "internalType": "address",
          "name": "recipient",
          "type": "address"
        },
        {
          "indexed": true,
          "internalType": "address",
          "name": "owner",
          "type": "address"
        },
        {
          "indexed": false,
          "internalType": "uint256",
          "name": "offer",
          "type": "uint256"
        }
      ],
      "name": "Offer",
      "type": "event"
    },
    {
      "anonymous": false,
      "inputs": [
        {
          "indexed": true,
          "internalType": "uint256",
          "name": "token",
          "type": "uint256"
        },
        {
          "indexed": true,
          "internalType": "address",
          "name": "offerer",
          "type": "address"
        },
        {
          "indexed": true,
          "internalType": "address",
          "name": "payee",
          "type": "address"
        },
        {
          "indexed": false,
          "internalType": "uint256",
          "name": "offer",
          "type": "uint256"
        },
        {
          "indexed": false,
          "internalType": "uint256",
          "name": "fee",
          "type": "uint256"
        }
      ],
      "name": "Payout",
      "type": "event"
    },
    {
      "anonymous": false,
      "inputs": [
        {
          "indexed": true,
          "internalType": "uint256",
          "name": "token",
          "type": "uint256"
        },
        {
          "indexed": true,
          "internalType": "address",
          "name": "recipient",
          "type": "address"
        },
        {
          "indexed": true,
          "internalType": "address",
          "name": "owner",
          "type": "address"
        },
        {
          "indexed": false,
          "internalType": "uint256",
          "name": "refund",
          "type": "uint256"
        },
        {
          "indexed": false,
          "internalType": "uint256",
          "name": "fee",
          "type": "uint256"
        }
      ],
      "name": "Revoke",
      "type": "event"
    },
    {
      "anonymous": false,
      "inputs": [
        {
          "indexed": true,
          "internalType": "address",
          "name": "oldAddress",
          "type": "address"
        },
        {
          "indexed": true,
          "internalType": "address",
          "name": "newAddress",
          "type": "address"
        }
      ],
      "name": "RoyaltyAddressUpdated",
      "type": "event"
    },
    {
      "anonymous": false,
      "inputs": [
        {
          "indexed": true,
          "internalType": "address",
          "name": "from",
          "type": "address"
        },
        {
          "indexed": true,
          "internalType": "address",
          "name": "to",
          "type": "address"
        },
        {
          "indexed": true,
          "internalType": "uint256",
          "name": "tokenId",
          "type": "uint256"
        }
      ],
      "name": "Transfer",
      "type": "event"
    },
    {
      "inputs": [
        {
          "internalType": "address",
          "name": "to",
          "type": "address"
        },
        {
          "internalType": "uint256",
          "name": "tokenId",
          "type": "uint256"
        }
      ],
      "name": "approve",
      "outputs": [],
      "stateMutability": "nonpayable",
      "type": "function"
    },
    {
      "inputs": [
        {
          "internalType": "address",
          "name": "owner",
          "type": "address"
        }
      ],
      "name": "balanceOf",
      "outputs": [
        {
          "internalType": "uint256",
          "name": "",
          "type": "uint256"
        }
      ],
      "stateMutability": "view",
      "type": "function"
    },
    {
      "inputs": [],
      "name": "baseExtension",
      "outputs": [
        {
          "internalType": "string",
          "name": "",
          "type": "string"
        }
      ],
      "stateMutability": "view",
      "type": "function"
    },
    {
      "inputs": [],
      "name": "baseURI",
      "outputs": [
        {
          "internalType": "string",
          "name": "",
          "type": "string"
        }
      ],
      "stateMutability": "view",
      "type": "function"
    },
    {
      "inputs": [],
      "name": "contractURI",
      "outputs": [
        {
          "internalType": "string",
          "name": "",
          "type": "string"
        }
      ],
      "stateMutability": "view",
      "type": "function"
    },
    {
      "inputs": [],
      "name": "cost",
      "outputs": [
        {
          "internalType": "uint96",
          "name": "",
          "type": "uint96"
        }
      ],
      "stateMutability": "view",
      "type": "function"
    },
    {
      "inputs": [
        {
          "internalType": "uint256",
          "name": "tokenId",
          "type": "uint256"
        }
      ],
      "name": "getApproved",
      "outputs": [
        {
          "internalType": "address",
          "name": "",
          "type": "address"
        }
      ],
      "stateMutability": "view",
      "type": "function"
    },
    {
      "inputs": [
        {
          "internalType": "address",
          "name": "owner",
          "type": "address"
        },
        {
          "internalType": "address",
          "name": "operator",
          "type": "address"
        }
      ],
      "name": "isApprovedForAll",
      "outputs": [
        {
          "internalType": "bool",
          "name": "",
          "type": "bool"
        }
      ],
      "stateMutability": "view",
      "type": "function"
    },
    {
      "inputs": [],
      "name": "maxMintAmount",
      "outputs": [
        {
          "internalType": "uint16",
          "name": "",
          "type": "uint16"
        }
      ],
      "stateMutability": "view",
      "type": "function"
    },
    {
      "inputs": [],
      "name": "maxSupply",
      "outputs": [
        {
          "internalType": "uint96",
          "name": "",
          "type": "uint96"
        }
      ],
      "stateMutability": "view",
      "type": "function"
    },
    {
      "inputs": [
        {
          "internalType": "uint256",
          "name": "mintAmount",
          "type": "uint256"
        },
        {
          "internalType": "uint256",
          "name": "tokenId",
          "type": "uint256"
        }
      ],
      "name": "mint",
      "outputs": [],
      "stateMutability": "payable",
      "type": "function"
    },
    {
      "inputs": [
        {
          "internalType": "uint256",
          "name": "mintAmount",
          "type": "uint256"
        }
      ],
      "name": "mint",
      "outputs": [],
      "stateMutability": "payable",
      "type": "function"
    },
    {
      "inputs": [],
      "name": "name",
      "outputs": [
        {
          "internalType": "string",
          "name": "",
          "type": "string"
        }
      ],
      "stateMutability": "view",
      "type": "function"
    },
    {
      "inputs": [
        {
          "internalType": "uint256",
          "name": "tokenId",
          "type": "uint256"
        }
      ],
      "name": "offer",
      "outputs": [],
      "stateMutability": "payable",
      "type": "function"
    },
    {
      "inputs": [
        {
          "internalType": "uint256",
          "name": "tokenId",
          "type": "uint256"
        },
        {
          "internalType": "address payable",
          "name": "recipient",
          "type": "address"
        }
      ],
      "name": "offer",
      "outputs": [],
      "stateMutability": "payable",
      "type": "function"
    },
    {
      "inputs": [
        {
          "internalType": "uint256",
          "name": "tokenId",
          "type": "uint256"
        }
      ],
      "name": "ownerOf",
      "outputs": [
        {
          "internalType": "address",
          "name": "",
          "type": "address"
        }
      ],
      "stateMutability": "view",
      "type": "function"
    },
    {
      "inputs": [
        {
          "internalType": "uint256",
          "name": "tokenId",
          "type": "uint256"
        }
      ],
      "name": "revoke",
      "outputs": [],
      "stateMutability": "payable",
      "type": "function"
    },
    {
      "inputs": [],
      "name": "royalty",
      "outputs": [
        {
          "internalType": "uint8",
          "name": "",
          "type": "uint8"
        }
      ],
      "stateMutability": "view",
      "type": "function"
    },
    {
      "inputs": [],
      "name": "royaltyAddress",
      "outputs": [
        {
          "internalType": "address payable",
          "name": "",
          "type": "address"
        }
      ],
      "stateMutability": "view",
      "type": "function"
    },
    {
      "inputs": [
        {
          "internalType": "address",
          "name": "from",
          "type": "address"
        },
        {
          "internalType": "address",
          "name": "to",
          "type": "address"
        },
        {
          "internalType": "uint256",
          "name": "tokenId",
          "type": "uint256"
        }
      ],
      "name": "safeTransferFrom",
      "outputs": [],
      "stateMutability": "nonpayable",
      "type": "function"
    },
    {
      "inputs": [
        {
          "internalType": "address",
          "name": "from",
          "type": "address"
        },
        {
          "internalType": "address",
          "name": "to",
          "type": "address"
        },
        {
          "internalType": "uint256",
          "name": "tokenId",
          "type": "uint256"
        },
        {
          "internalType": "bytes",
          "name": "data",
          "type": "bytes"
        }
      ],
      "name": "safeTransferFrom",
      "outputs": [],
      "stateMutability": "nonpayable",
      "type": "function"
    },
    {
      "inputs": [
        {
          "internalType": "address",
          "name": "operator",
          "type": "address"
        },
        {
          "internalType": "bool",
          "name": "approved",
          "type": "bool"
        }
      ],
      "name": "setApprovalForAll",
      "outputs": [],
      "stateMutability": "nonpayable",
      "type": "function"
    },
    {
      "inputs": [],
      "name": "supply",
      "outputs": [
        {
          "internalType": "uint32",
          "name": "",
          "type": "uint32"
        }
      ],
      "stateMutability": "view",
      "type": "function"
    },
    {
      "inputs": [
        {
          "internalType": "bytes4",
          "name": "interfaceId",
          "type": "bytes4"
        }
      ],
      "name": "supportsInterface",
      "outputs": [
        {
          "internalType": "bool",
          "name": "",
          "type": "bool"
        }
      ],
      "stateMutability": "view",
      "type": "function"
    },
    {
      "inputs": [],
      "name": "symbol",
      "outputs": [
        {
          "internalType": "string",
          "name": "",
          "type": "string"
        }
      ],
      "stateMutability": "view",
      "type": "function"
    },
    {
      "inputs": [
        {
          "internalType": "uint256",
          "name": "",
          "type": "uint256"
        }
      ],
      "name": "tokenData",
      "outputs": [
        {
          "internalType": "uint256",
          "name": "lastPrice",
          "type": "uint256"
        },
        {
          "internalType": "uint256",
          "name": "currentOffer",
          "type": "uint256"
        },
        {
          "internalType": "address payable",
          "name": "offerer",
          "type": "address"
        }
      ],
      "stateMutability": "view",
      "type": "function"
    },
    {
      "inputs": [
        {
          "internalType": "uint256",
          "name": "tokenId",
          "type": "uint256"
        }
      ],
      "name": "tokenURI",
      "outputs": [
        {
          "internalType": "string",
          "name": "",
          "type": "string"
        }
      ],
      "stateMutability": "view",
      "type": "function"
    },
    {
      "inputs": [
        {
          "internalType": "address",
          "name": "from",
          "type": "address"
        },
        {
          "internalType": "address",
          "name": "to",
          "type": "address"
        },
        {
          "internalType": "uint256",
          "name": "tokenId",
          "type": "uint256"
        }
      ],
      "name": "transferFrom",
      "outputs": [],
      "stateMutability": "nonpayable",
      "type": "function"
    },
    {
      "inputs": [
        {
          "internalType": "address payable",
          "name": "newRoyaltyAddress",
          "type": "address"
        }
      ],
      "name": "updateRoyaltyAddress",
      "outputs": [],
      "stateMutability": "nonpayable",
      "type": "function"
    }
  ],
  "bytecode": "0x6080604052662386f26fc10000600860006101000a8154816bffffffffffffffffffffffff02191690836bffffffffffffffffffffffff16021790555060836008600c6101000a8154816bffffffffffffffffffffffff02191690836bffffffffffffffffffffffff1602179055506000600860186101000a81548163ffffffff021916908363ffffffff160217905550600a6008601c6101000a81548161ffff021916908361ffff16021790555060036008601e6101000a81548160ff021916908360ff160217905550604051806080016040528060428152602001620050b76042913960099081620000f49190620004e4565b506040518060800160405280604f8152602001620050f9604f9139600a90816200011f9190620004e4565b506040518060400160405280600581526020017f2e6a736f6e000000000000000000000000000000000000000000000000000000815250600b9081620001669190620004e4565b5073cdb0ba3bee883c1e56b115b39bb0f2315ce20c16600c60006101000a81548173ffffffffffffffffffffffffffffffffffffffff021916908373ffffffffffffffffffffffffffffffffffffffff160217905550348015620001c957600080fd5b506040518060400160405280600b81526020017f5465737420466c696768740000000000000000000000000000000000000000008152506040518060400160405280600281526020017f55500000000000000000000000000000000000000000000000000000000000008152508160009081620002479190620004e4565b508060019081620002599190620004e4565b5050506001600681905550620005cb565b600081519050919050565b7f4e487b7100000000000000000000000000000000000000000000000000000000600052604160045260246000fd5b7f4e487b7100000000000000000000000000000000000000000000000000000000600052602260045260246000fd5b60006002820490506001821680620002ec57607f821691505b602082108103620003025762000301620002a4565b5b50919050565b60008190508160005260206000209050919050565b60006020601f8301049050919050565b600082821b905092915050565b6000600883026200036c7fffffffffffffffffffffffffffffffffffffffffffffffffffffffffffffffff826200032d565b6200037886836200032d565b95508019841693508086168417925050509392505050565b6000819050919050565b6000819050919050565b6000620003c5620003bf620003b98462000390565b6200039a565b62000390565b9050919050565b6000819050919050565b620003e183620003a4565b620003f9620003f082620003cc565b8484546200033a565b825550505050565b600090565b6200041062000401565b6200041d818484620003d6565b505050565b5b8181101562000445576200043960008262000406565b60018101905062000423565b5050565b601f82111562000494576200045e8162000308565b62000469846200031d565b8101602085101562000479578190505b6200049162000488856200031d565b83018262000422565b50505b505050565b600082821c905092915050565b6000620004b96000198460080262000499565b1980831691505092915050565b6000620004d48383620004a6565b9150826002028217905092915050565b620004ef826200026a565b67ffffffffffffffff8111156200050b576200050a62000275565b5b620005178254620002d3565b6200052482828562000449565b600060209050601f8311600181146200055c576000841562000547578287015190505b620005538582620004c6565b865550620005c3565b601f1984166200056c8662000308565b60005b8281101562000596578489015182556001820191506020850194506020810190506200056f565b86831015620005b65784890151620005b2601f891682620004a6565b8355505b6001600288020188555050505b505050505050565b614adc80620005db6000396000f3fe6080604052600436106101c25760003560e01c80636c0360eb116100f7578063b4b5b48f11610095578063c87b56dd11610064578063c87b56dd146105ff578063d5abeb011461063c578063e8a3d48514610667578063e985e9c514610692576101c2565b8063b4b5b48f14610550578063b88d4fde1461058f578063c46154b5146105b8578063c6682862146105d4576101c2565b806395d89b41116100d157806395d89b41146104b5578063a0712d68146104e0578063a22cb465146104fc578063ad2f852a14610525576101c2565b80636c0360eb1461043157806370a082311461045c578063761610fc14610499576101c2565b806320c5429b1161016457806329ee566c1161013e57806329ee566c1461037757806342842e0e146103a2578063519a2044146103cb5780636352211e146103f4576101c2565b806320c5429b14610307578063239c70ae1461032357806323b872dd1461034e576101c2565b8063081812fc116101a0578063081812fc1461025a578063095ea7b31461029757806313faede6146102c05780631b2ef1ca146102eb576101c2565b806301ffc9a7146101c7578063047fc9aa1461020457806306fdde031461022f575b600080fd5b3480156101d357600080fd5b506101ee60048036038101906101e99190613747565b6106cf565b6040516101fb919061378f565b60405180910390f35b34801561021057600080fd5b506102196107b1565b60405161022691906137c9565b60405180910390f35b34801561023b57600080fd5b506102446107c7565b6040516102519190613874565b60405180910390f35b34801561026657600080fd5b50610281600480360381019061027c91906138cc565b610859565b60405161028e919061393a565b60405180910390f35b3480156102a357600080fd5b506102be60048036038101906102b99190613981565b610875565b005b3480156102cc57600080fd5b506102d561088b565b6040516102e291906139e8565b60405180910390f35b61030560048036038101906103009190613a03565b6108a9565b005b610321600480360381019061031c91906138cc565b610f2c565b005b34801561032f57600080fd5b506103386112c1565b6040516103459190613a60565b60405180910390f35b34801561035a57600080fd5b5061037560048036038101906103709190613a7b565b6112d5565b005b34801561038357600080fd5b5061038c61132a565b6040516103999190613aea565b60405180910390f35b3480156103ae57600080fd5b506103c960048036038101906103c49190613a7b565b61133d565b005b3480156103d757600080fd5b506103f260048036038101906103ed9190613b43565b61135d565b005b34801561040057600080fd5b5061041b600480360381019061041691906138cc565b611597565b604051610428919061393a565b60405180910390f35b34801561043d57600080fd5b506104466115a9565b6040516104539190613874565b60405180910390f35b34801561046857600080fd5b50610483600480360381019061047e9190613b70565b611637565b6040516104909190613bac565b60405180910390f35b6104b360048036038101906104ae91906138cc565b6116f1565b005b3480156104c157600080fd5b506104ca6116fe565b6040516104d79190613874565b60405180910390f35b6104fa60048036038101906104f591906138cc565b611790565b005b34801561050857600080fd5b50610523600480360381019061051e9190613bf3565b61179e565b005b34801561053157600080fd5b5061053a6117b4565b6040516105479190613c42565b60405180910390f35b34801561055c57600080fd5b50610577600480360381019061057291906138cc565b6117da565b60405161058693929190613c5d565b60405180910390f35b34801561059b57600080fd5b506105b660048036038101906105b19190613dc9565b611824565b005b6105d260048036038101906105cd9190613e4c565b611849565b005b3480156105e057600080fd5b506105e9611d2b565b6040516105f69190613874565b60405180910390f35b34801561060b57600080fd5b50610626600480360381019061062191906138cc565b611db9565b6040516106339190613874565b60405180910390f35b34801561064857600080fd5b50610651611dfa565b60405161065e91906139e8565b60405180910390f35b34801561067357600080fd5b5061067c611e18565b6040516106899190613874565b60405180910390f35b34801561069e57600080fd5b506106b960048036038101906106b49190613e8c565b611ea6565b6040516106c6919061378f565b60405180910390f35b60007f80ac58cd000000000000000000000000000000000000000000000000000000007bffffffffffffffffffffffffffffffffffffffffffffffffffffffff1916827bffffffffffffffffffffffffffffffffffffffffffffffffffffffff1916148061079a57507f5b5e139f000000000000000000000000000000000000000000000000000000007bffffffffffffffffffffffffffffffffffffffffffffffffffffffff1916827bffffffffffffffffffffffffffffffffffffffffffffffffffffffff1916145b806107aa57506107a982611f3a565b5b9050919050565b600860189054906101000a900463ffffffff1681565b6060600080546107d690613efb565b80601f016020809104026020016040519081016040528092919081815260200182805461080290613efb565b801561084f5780601f106108245761010080835404028352916020019161084f565b820191906000526020600020905b81548152906001019060200180831161083257829003601f168201915b5050505050905090565b600061086482611fa4565b5061086e8261202c565b9050919050565b6108878282610882612069565b612071565b5050565b600860009054906101000a90046bffffffffffffffffffffffff1681565b6108b1612083565b600082036108eb576040517f215b990c00000000000000000000000000000000000000000000000000000000815260040160405180910390fd5b6008601c9054906101000a900461ffff1661ffff1661090933611637565b836109149190613f5b565b111561094c576040517fbb954e0100000000000000000000000000000000000000000000000000000000815260040160405180910390fd5b6008600c9054906101000a90046bffffffffffffffffffffffff166bffffffffffffffffffffffff1682600860189054906101000a900463ffffffff1663ffffffff166109999190613f5b565b11156109d1576040517fc30436e900000000000000000000000000000000000000000000000000000000815260040160405180910390fd5b81600860009054906101000a90046bffffffffffffffffffffffff166bffffffffffffffffffffffff16610a059190613f8f565b341015610a3e576040517fcd1c886700000000000000000000000000000000000000000000000000000000815260040160405180910390fd5b60008103610c61576000610a51836120c9565b90506000805b6008600c9054906101000a90046bffffffffffffffffffffffff166bffffffffffffffffffffffff16811015610ac7576000600760008381526020019081526020016000206000015403610ab4578180610ab090613fd1565b9250505b8080610abf90613fd1565b915050610a57565b5060005b84811015610c1e576000610ae18283850361228d565b90506000848281518110610af857610af7614019565b5b602002602001015190508460018486030381518110610b1a57610b19614019565b5b6020026020010151858381518110610b3557610b34614019565b5b602002602001018181525050600860009054906101000a90046bffffffffffffffffffffffff166bffffffffffffffffffffffff166007600083815260200190815260200160002060000181905550610b8e33826122d2565b3373ffffffffffffffffffffffffffffffffffffffff16817fac16e72d20ec8a4e921adfabdaa8569b265795be5609da925d82b16f8330a38460018a3481610bd957610bd8614048565b5b04600188600860189054906101000a900463ffffffff1663ffffffff160101604051610c07939291906140bc565b60405180910390a350508080600101915050610acb565b5083600860189054906101000a900463ffffffff1663ffffffff1601600860186101000a81548163ffffffff021916908363ffffffff1602179055505050610e51565b60018214610ca4576040517f08c379a0000000000000000000000000000000000000000000000000000000008152600401610c9b90614165565b60405180910390fd5b6008600c9054906101000a90046bffffffffffffffffffffffff166bffffffffffffffffffffffff168110610d0e576040517f08c379a0000000000000000000000000000000000000000000000000000000008152600401610d05906141d1565b60405180910390fd5b6000600760008381526020019081526020016000206000015414610d67576040517f08c379a0000000000000000000000000000000000000000000000000000000008152600401610d5e9061423d565b60405180910390fd5b600860009054906101000a90046bffffffffffffffffffffffff166bffffffffffffffffffffffff166007600083815260200190815260200160002060000181905550610db433826122d2565b6001600860189054906101000a900463ffffffff1601600860186101000a81548163ffffffff021916908363ffffffff1602179055503373ffffffffffffffffffffffffffffffffffffffff16817fac16e72d20ec8a4e921adfabdaa8569b265795be5609da925d82b16f8330a384600134600860189054906101000a900463ffffffff16604051610e489392919061428e565b60405180910390a35b6000600c60009054906101000a900473ffffffffffffffffffffffffffffffffffffffff1673ffffffffffffffffffffffffffffffffffffffff1634604051610e99906142f6565b60006040518083038185875af1925050503d8060008114610ed6576040519150601f19603f3d011682016040523d82523d6000602084013e610edb565b606091505b5050905080610f1f576040517f08c379a0000000000000000000000000000000000000000000000000000000008152600401610f1690614357565b60405180910390fd5b50610f286122f0565b5050565b610f34612083565b6007600082815260200190815260200160002060020160009054906101000a900473ffffffffffffffffffffffffffffffffffffffff1673ffffffffffffffffffffffffffffffffffffffff163373ffffffffffffffffffffffffffffffffffffffff1614610fcf576040517f82b4290000000000000000000000000000000000000000000000000000000000815260040160405180910390fd5b60006007600083815260200190815260200160002060020160009054906101000a900473ffffffffffffffffffffffffffffffffffffffff16905060006007600084815260200190815260200160002060010154905060006064826110349190614377565b905060006007600086815260200190815260200160002060020160006101000a81548173ffffffffffffffffffffffffffffffffffffffff021916908373ffffffffffffffffffffffffffffffffffffffff160217905550600760008581526020019081526020016000206000015460076000868152602001908152602001600020600101819055506110c684611597565b73ffffffffffffffffffffffffffffffffffffffff168373ffffffffffffffffffffffffffffffffffffffff16857f964ffb09ac3679f2df0814f4e921d922d62967fb4cf0f6deff062df673d56bd085856040516111259291906143a8565b60405180910390a460008373ffffffffffffffffffffffffffffffffffffffff16828461115291906143d1565b60405161115e906142f6565b60006040518083038185875af1925050503d806000811461119b576040519150601f19603f3d011682016040523d82523d6000602084013e6111a0565b606091505b50509050806111e4576040517f08c379a00000000000000000000000000000000000000000000000000000000081526004016111db90614451565b60405180910390fd5b600c60009054906101000a900473ffffffffffffffffffffffffffffffffffffffff1673ffffffffffffffffffffffffffffffffffffffff168260405161122a906142f6565b60006040518083038185875af1925050503d8060008114611267576040519150601f19603f3d011682016040523d82523d6000602084013e61126c565b606091505b505080915050806112b2576040517f08c379a00000000000000000000000000000000000000000000000000000000081526004016112a9906144bd565b60405180910390fd5b505050506112be6122f0565b50565b6008601c9054906101000a900461ffff1681565b60006007600083815260200190815260200160002060020160009054906101000a900473ffffffffffffffffffffffffffffffffffffffff169050611319826122fa565b61132484828461268f565b50505050565b6008601e9054906101000a900460ff1681565b61135883838360405180602001604052806000815250611824565b505050565b600c60009054906101000a900473ffffffffffffffffffffffffffffffffffffffff1673ffffffffffffffffffffffffffffffffffffffff163373ffffffffffffffffffffffffffffffffffffffff16146113e4576040517f82b4290000000000000000000000000000000000000000000000000000000000815260040160405180910390fd5b600073ffffffffffffffffffffffffffffffffffffffff168173ffffffffffffffffffffffffffffffffffffffff160361144a576040517fd92e233d00000000000000000000000000000000000000000000000000000000815260040160405180910390fd5b600c60009054906101000a900473ffffffffffffffffffffffffffffffffffffffff1673ffffffffffffffffffffffffffffffffffffffff168173ffffffffffffffffffffffffffffffffffffffff16036114d1576040517f367558c300000000000000000000000000000000000000000000000000000000815260040160405180910390fd5b6000600c60009054906101000a900473ffffffffffffffffffffffffffffffffffffffff16905081600c60006101000a81548173ffffffffffffffffffffffffffffffffffffffff021916908373ffffffffffffffffffffffffffffffffffffffff1602179055508173ffffffffffffffffffffffffffffffffffffffff168173ffffffffffffffffffffffffffffffffffffffff167f0192b7830ff62527740587c7a633510971963c1822ba42f29d53dee365f7a7fd60405160405180910390a35050565b60006115a282611fa4565b9050919050565b600980546115b690613efb565b80601f01602080910402602001604051908101604052809291908181526020018280546115e290613efb565b801561162f5780601f106116045761010080835404028352916020019161162f565b820191906000526020600020905b81548152906001019060200180831161161257829003601f168201915b505050505081565b60008073ffffffffffffffffffffffffffffffffffffffff168273ffffffffffffffffffffffffffffffffffffffff16036116aa5760006040517f89c62b640000000000000000000000000000000000000000000000000000000081526004016116a1919061393a565b60405180910390fd5b600360008373ffffffffffffffffffffffffffffffffffffffff1673ffffffffffffffffffffffffffffffffffffffff168152602001908152602001600020549050919050565b6116fb8133611849565b50565b60606001805461170d90613efb565b80601f016020809104026020016040519081016040528092919081815260200182805461173990613efb565b80156117865780601f1061175b57610100808354040283529160200191611786565b820191906000526020600020905b81548152906001019060200180831161176957829003601f168201915b5050505050905090565b61179b8160006108a9565b50565b6117b06117a9612069565b8383612791565b5050565b600c60009054906101000a900473ffffffffffffffffffffffffffffffffffffffff1681565b60076020528060005260406000206000915090508060000154908060010154908060020160009054906101000a900473ffffffffffffffffffffffffffffffffffffffff16905083565b61182f8484846112d5565b61184361183a612069565b85858585612900565b50505050565b611851612083565b600760008381526020019081526020016000206000015434116118a0576040517f72351e5300000000000000000000000000000000000000000000000000000000815260040160405180910390fd5b600073ffffffffffffffffffffffffffffffffffffffff168173ffffffffffffffffffffffffffffffffffffffff1603611906576040517fd92e233d00000000000000000000000000000000000000000000000000000000815260040160405180910390fd5b600c82036119ab5760006064600560076000868152602001908152602001600020600001546119359190613f8f565b61193f9190614377565b90508060076000858152602001908152602001600020600001546119639190613f5b565b341161199b576040517f72351e5300000000000000000000000000000000000000000000000000000000815260040160405180910390fd5b6119a58383612ab1565b50611d1f565b60006007600084815260200190815260200160002060020160009054906101000a900473ffffffffffffffffffffffffffffffffffffffff169050600060076000858152602001908152602001600020600101549050826007600086815260200190815260200160002060020160006101000a81548173ffffffffffffffffffffffffffffffffffffffff021916908373ffffffffffffffffffffffffffffffffffffffff160217905550346007600086815260200190815260200160002060010181905550611a7a84611597565b73ffffffffffffffffffffffffffffffffffffffff168373ffffffffffffffffffffffffffffffffffffffff16857f3d8edb263c4b80dc96dbb93604b0b3e2cfbb834c7ea767aca6307c33d300a0c434604051611ad79190613bac565b60405180910390a4600073ffffffffffffffffffffffffffffffffffffffff168273ffffffffffffffffffffffffffffffffffffffff1614611d1c576000606482611b229190614377565b9050611b2d85611597565b73ffffffffffffffffffffffffffffffffffffffff168373ffffffffffffffffffffffffffffffffffffffff16867f964ffb09ac3679f2df0814f4e921d922d62967fb4cf0f6deff062df673d56bd08585604051611b8c9291906143a8565b60405180910390a460008373ffffffffffffffffffffffffffffffffffffffff168284611bb991906143d1565b604051611bc5906142f6565b60006040518083038185875af1925050503d8060008114611c02576040519150601f19603f3d011682016040523d82523d6000602084013e611c07565b606091505b5050905080611c4b576040517f08c379a0000000000000000000000000000000000000000000000000000000008152600401611c4290614529565b60405180910390fd5b600c60009054906101000a900473ffffffffffffffffffffffffffffffffffffffff1673ffffffffffffffffffffffffffffffffffffffff1682604051611c91906142f6565b60006040518083038185875af1925050503d8060008114611cce576040519150601f19603f3d011682016040523d82523d6000602084013e611cd3565b606091505b50508091505080611d19576040517f08c379a0000000000000000000000000000000000000000000000000000000008152600401611d10906145bb565b60405180910390fd5b50505b50505b611d276122f0565b5050565b600b8054611d3890613efb565b80601f0160208091040260200160405190810160405280929190818152602001828054611d6490613efb565b8015611db15780601f10611d8657610100808354040283529160200191611db1565b820191906000526020600020905b815481529060010190602001808311611d9457829003601f168201915b505050505081565b6060611dc482611597565b506009611dd083612dfc565b600b604051602001611de4939291906146fb565b6040516020818303038152906040529050919050565b6008600c9054906101000a90046bffffffffffffffffffffffff1681565b600a8054611e2590613efb565b80601f0160208091040260200160405190810160405280929190818152602001828054611e5190613efb565b8015611e9e5780601f10611e7357610100808354040283529160200191611e9e565b820191906000526020600020905b815481529060010190602001808311611e8157829003601f168201915b505050505081565b6000600560008473ffffffffffffffffffffffffffffffffffffffff1673ffffffffffffffffffffffffffffffffffffffff16815260200190815260200160002060008373ffffffffffffffffffffffffffffffffffffffff1673ffffffffffffffffffffffffffffffffffffffff16815260200190815260200160002060009054906101000a900460ff16905092915050565b60007f01ffc9a7000000000000000000000000000000000000000000000000000000007bffffffffffffffffffffffffffffffffffffffffffffffffffffffff1916827bffffffffffffffffffffffffffffffffffffffffffffffffffffffff1916149050919050565b600080611fb083612eca565b9050600073ffffffffffffffffffffffffffffffffffffffff168173ffffffffffffffffffffffffffffffffffffffff160361202357826040517f7e27328900000000000000000000000000000000000000000000000000000000815260040161201a9190613bac565b60405180910390fd5b80915050919050565b60006004600083815260200190815260200160002060009054906101000a900473ffffffffffffffffffffffffffffffffffffffff169050919050565b600033905090565b61207e8383836001612f07565b505050565b6002600654036120bf576040517f3ee5aeb500000000000000000000000000000000000000000000000000000000815260040160405180910390fd5b6002600681905550565b60606008600c9054906101000a90046bffffffffffffffffffffffff166bffffffffffffffffffffffff16821115612136576040517f08c379a000000000000000000000000000000000000000000000000000000000815260040161212d90614783565b60405180910390fd5b60006008600c9054906101000a90046bffffffffffffffffffffffff166bffffffffffffffffffffffff1667ffffffffffffffff81111561217a57612179613c9e565b5b6040519080825280602002602001820160405280156121a85781602001602082028036833780820191505090505b5090506000805b6008600c9054906101000a90046bffffffffffffffffffffffff166bffffffffffffffffffffffff1681101561223f57600060076000838152602001908152602001600020600001540361222c578083838151811061221157612210614019565b5b602002602001018181525050818061222890613fd1565b9250505b808061223790613fd1565b9150506121af565b5083811015612283576040517f08c379a000000000000000000000000000000000000000000000000000000000815260040161227a906147ef565b60405180910390fd5b8192505050919050565b600081424433866040516020016122a79493929190614878565b6040516020818303038152906040528051906020012060001c6122ca91906148c6565b905092915050565b6122ec8282604051806020016040528060008152506130cc565b5050565b6001600681905550565b612302612083565b60006007600083815260200190815260200160002060405180606001604052908160008201548152602001600182015481526020016002820160009054906101000a900473ffffffffffffffffffffffffffffffffffffffff1673ffffffffffffffffffffffffffffffffffffffff1673ffffffffffffffffffffffffffffffffffffffff1681525050905080600001518160200151116123cf576040517f72351e5300000000000000000000000000000000000000000000000000000000815260040160405180910390fd5b600081602001519050600060646008601e9054906101000a900460ff1660ff16836123fa9190613f8f565b6124049190614377565b9050600061241185611597565b90508260076000878152602001908152602001600020600001819055506000600760008781526020019081526020016000206001018190555060006007600087815260200190815260200160002060020160006101000a81548173ffffffffffffffffffffffffffffffffffffffff021916908373ffffffffffffffffffffffffffffffffffffffff1602179055508073ffffffffffffffffffffffffffffffffffffffff16846040015173ffffffffffffffffffffffffffffffffffffffff16867f7996815e3da58528c7ffbaf978448149270f08e2250da287909e5cd7ad98a41f86866040516125049291906143a8565b60405180910390a460008173ffffffffffffffffffffffffffffffffffffffff16838561253191906143d1565b60405161253d906142f6565b60006040518083038185875af1925050503d806000811461257a576040519150601f19603f3d011682016040523d82523d6000602084013e61257f565b606091505b50509050806125ba576040517f2f35253100000000000000000000000000000000000000000000000000000000815260040160405180910390fd5b600c60009054906101000a900473ffffffffffffffffffffffffffffffffffffffff1673ffffffffffffffffffffffffffffffffffffffff1683604051612600906142f6565b60006040518083038185875af1925050503d806000811461263d576040519150601f19603f3d011682016040523d82523d6000602084013e612642565b606091505b5050809150508061267f576040517f2f35253100000000000000000000000000000000000000000000000000000000815260040160405180910390fd5b505050505061268c6122f0565b50565b600073ffffffffffffffffffffffffffffffffffffffff168273ffffffffffffffffffffffffffffffffffffffff16036127015760006040517f64a0ae920000000000000000000000000000000000000000000000000000000081526004016126f8919061393a565b60405180910390fd5b60006127158383612710612069565b6130f0565b90508373ffffffffffffffffffffffffffffffffffffffff168173ffffffffffffffffffffffffffffffffffffffff161461278b578382826040517f64283d7b000000000000000000000000000000000000000000000000000000008152600401612782939291906148f7565b60405180910390fd5b50505050565b600073ffffffffffffffffffffffffffffffffffffffff168273ffffffffffffffffffffffffffffffffffffffff160361280257816040517f5b08ba180000000000000000000000000000000000000000000000000000000081526004016127f9919061393a565b60405180910390fd5b80600560008573ffffffffffffffffffffffffffffffffffffffff1673ffffffffffffffffffffffffffffffffffffffff16815260200190815260200160002060008473ffffffffffffffffffffffffffffffffffffffff1673ffffffffffffffffffffffffffffffffffffffff16815260200190815260200160002060006101000a81548160ff0219169083151502179055508173ffffffffffffffffffffffffffffffffffffffff168373ffffffffffffffffffffffffffffffffffffffff167f17307eab39ab6107e8899845ad3d59bd9653f200f220920489ca2b5937696c31836040516128f3919061378f565b60405180910390a3505050565b60008373ffffffffffffffffffffffffffffffffffffffff163b1115612aaa578273ffffffffffffffffffffffffffffffffffffffff1663150b7a02868685856040518563ffffffff1660e01b815260040161295f9493929190614983565b6020604051808303816000875af192505050801561299b57506040513d601f19601f8201168201806040525081019061299891906149e4565b60015b612a1f573d80600081146129cb576040519150601f19603f3d011682016040523d82523d6000602084013e6129d0565b606091505b506000815103612a1757836040517f64a0ae92000000000000000000000000000000000000000000000000000000008152600401612a0e919061393a565b60405180910390fd5b805181602001fd5b63150b7a0260e01b7bffffffffffffffffffffffffffffffffffffffffffffffffffffffff1916817bffffffffffffffffffffffffffffffffffffffffffffffffffffffff191614612aa857836040517f64a0ae92000000000000000000000000000000000000000000000000000000008152600401612a9f919061393a565b60405180910390fd5b505b5050505050565b6000612abc83611597565b90503460076000858152602001908152602001600020600001819055506000600760008581526020019081526020016000206001018190555060006007600085815260200190815260200160002060020160006101000a81548173ffffffffffffffffffffffffffffffffffffffff021916908373ffffffffffffffffffffffffffffffffffffffff1602179055508073ffffffffffffffffffffffffffffffffffffffff168273ffffffffffffffffffffffffffffffffffffffff16847f3d8edb263c4b80dc96dbb93604b0b3e2cfbb834c7ea767aca6307c33d300a0c434604051612ba99190613bac565b60405180910390a4600060646008601e9054906101000a900460ff1660ff1634612bd39190613f8f565b612bdd9190614377565b905060008134612bed91906143d1565b905060008373ffffffffffffffffffffffffffffffffffffffff1682604051612c15906142f6565b60006040518083038185875af1925050503d8060008114612c52576040519150601f19603f3d011682016040523d82523d6000602084013e612c57565b606091505b5050905080612c9b576040517f08c379a0000000000000000000000000000000000000000000000000000000008152600401612c9290614a5d565b60405180910390fd5b600c60009054906101000a900473ffffffffffffffffffffffffffffffffffffffff1673ffffffffffffffffffffffffffffffffffffffff1683604051612ce1906142f6565b60006040518083038185875af1925050503d8060008114612d1e576040519150601f19603f3d011682016040523d82523d6000602084013e612d23565b606091505b50508091505080612d69576040517f08c379a0000000000000000000000000000000000000000000000000000000008152600401612d60906144bd565b60405180910390fd5b612d7584866001612791565b612d8084868861268f565b612d8c84866000612791565b8373ffffffffffffffffffffffffffffffffffffffff168573ffffffffffffffffffffffffffffffffffffffff16877f7996815e3da58528c7ffbaf978448149270f08e2250da287909e5cd7ad98a41f3487604051612dec9291906143a8565b60405180910390a4505050505050565b606060006001612e0b8461330a565b01905060008167ffffffffffffffff811115612e2a57612e29613c9e565b5b6040519080825280601f01601f191660200182016040528015612e5c5781602001600182028036833780820191505090505b509050600082602001820190505b600115612ebf578080600190039150507f3031323334353637383961626364656600000000000000000000000000000000600a86061a8153600a8581612eb357612eb2614048565b5b04945060008503612e6a575b819350505050919050565b60006002600083815260200190815260200160002060009054906101000a900473ffffffffffffffffffffffffffffffffffffffff169050919050565b8080612f405750600073ffffffffffffffffffffffffffffffffffffffff168273ffffffffffffffffffffffffffffffffffffffff1614155b15613074576000612f5084611fa4565b9050600073ffffffffffffffffffffffffffffffffffffffff168373ffffffffffffffffffffffffffffffffffffffff1614158015612fbb57508273ffffffffffffffffffffffffffffffffffffffff168173ffffffffffffffffffffffffffffffffffffffff1614155b8015612fce5750612fcc8184611ea6565b155b1561301057826040517fa9fbf51f000000000000000000000000000000000000000000000000000000008152600401613007919061393a565b60405180910390fd5b811561307257838573ffffffffffffffffffffffffffffffffffffffff168273ffffffffffffffffffffffffffffffffffffffff167f8c5be1e5ebec7d5bd14f71427d1e84f3dd0314c0f7b2291e5b200ac8c7c3b92560405160405180910390a45b505b836004600085815260200190815260200160002060006101000a81548173ffffffffffffffffffffffffffffffffffffffff021916908373ffffffffffffffffffffffffffffffffffffffff16021790555050505050565b6130d6838361345d565b6130eb6130e1612069565b6000858585612900565b505050565b6000806130fc84612eca565b9050600073ffffffffffffffffffffffffffffffffffffffff168373ffffffffffffffffffffffffffffffffffffffff161461313e5761313d818486613556565b5b600073ffffffffffffffffffffffffffffffffffffffff168173ffffffffffffffffffffffffffffffffffffffff16146131cf57613180600085600080612f07565b6001600360008373ffffffffffffffffffffffffffffffffffffffff1673ffffffffffffffffffffffffffffffffffffffff168152602001908152602001600020600082825403925050819055505b600073ffffffffffffffffffffffffffffffffffffffff168573ffffffffffffffffffffffffffffffffffffffff1614613252576001600360008773ffffffffffffffffffffffffffffffffffffffff1673ffffffffffffffffffffffffffffffffffffffff168152602001908152602001600020600082825401925050819055505b846002600086815260200190815260200160002060006101000a81548173ffffffffffffffffffffffffffffffffffffffff021916908373ffffffffffffffffffffffffffffffffffffffff160217905550838573ffffffffffffffffffffffffffffffffffffffff168273ffffffffffffffffffffffffffffffffffffffff167fddf252ad1be2c89b69c2b068fc378daa952ba7f163c4a11628f55a4df523b3ef60405160405180910390a4809150509392505050565b600080600090507a184f03e93ff9f4daa797ed6e38ed64bf6a1f0100000000000000008310613368577a184f03e93ff9f4daa797ed6e38ed64bf6a1f010000000000000000838161335e5761335d614048565b5b0492506040810190505b6d04ee2d6d415b85acef810000000083106133a5576d04ee2d6d415b85acef8100000000838161339b5761339a614048565b5b0492506020810190505b662386f26fc1000083106133d457662386f26fc1000083816133ca576133c9614048565b5b0492506010810190505b6305f5e10083106133fd576305f5e10083816133f3576133f2614048565b5b0492506008810190505b612710831061342257612710838161341857613417614048565b5b0492506004810190505b60648310613445576064838161343b5761343a614048565b5b0492506002810190505b600a8310613454576001810190505b80915050919050565b600073ffffffffffffffffffffffffffffffffffffffff168273ffffffffffffffffffffffffffffffffffffffff16036134cf5760006040517f64a0ae920000000000000000000000000000000000000000000000000000000081526004016134c6919061393a565b60405180910390fd5b60006134dd838360006130f0565b9050600073ffffffffffffffffffffffffffffffffffffffff168173ffffffffffffffffffffffffffffffffffffffff16146135515760006040517f73c6ac6e000000000000000000000000000000000000000000000000000000008152600401613548919061393a565b60405180910390fd5b505050565b61356183838361361a565b61361557600073ffffffffffffffffffffffffffffffffffffffff168373ffffffffffffffffffffffffffffffffffffffff16036135d657806040517f7e2732890000000000000000000000000000000000000000000000000000000081526004016135cd9190613bac565b60405180910390fd5b81816040517f177e802f00000000000000000000000000000000000000000000000000000000815260040161360c929190614a7d565b60405180910390fd5b505050565b60008073ffffffffffffffffffffffffffffffffffffffff168373ffffffffffffffffffffffffffffffffffffffff16141580156136d257508273ffffffffffffffffffffffffffffffffffffffff168473ffffffffffffffffffffffffffffffffffffffff16148061369357506136928484611ea6565b5b806136d157508273ffffffffffffffffffffffffffffffffffffffff166136b98361202c565b73ffffffffffffffffffffffffffffffffffffffff16145b5b90509392505050565b6000604051905090565b600080fd5b600080fd5b60007fffffffff0000000000000000000000000000000000000000000000000000000082169050919050565b613724816136ef565b811461372f57600080fd5b50565b6000813590506137418161371b565b92915050565b60006020828403121561375d5761375c6136e5565b5b600061376b84828501613732565b91505092915050565b60008115159050919050565b61378981613774565b82525050565b60006020820190506137a46000830184613780565b92915050565b600063ffffffff82169050919050565b6137c3816137aa565b82525050565b60006020820190506137de60008301846137ba565b92915050565b600081519050919050565b600082825260208201905092915050565b60005b8381101561381e578082015181840152602081019050613803565b60008484015250505050565b6000601f19601f8301169050919050565b6000613846826137e4565b61385081856137ef565b9350613860818560208601613800565b6138698161382a565b840191505092915050565b6000602082019050818103600083015261388e818461383b565b905092915050565b6000819050919050565b6138a981613896565b81146138b457600080fd5b50565b6000813590506138c6816138a0565b92915050565b6000602082840312156138e2576138e16136e5565b5b60006138f0848285016138b7565b91505092915050565b600073ffffffffffffffffffffffffffffffffffffffff82169050919050565b6000613924826138f9565b9050919050565b61393481613919565b82525050565b600060208201905061394f600083018461392b565b92915050565b61395e81613919565b811461396957600080fd5b50565b60008135905061397b81613955565b92915050565b60008060408385031215613998576139976136e5565b5b60006139a68582860161396c565b92505060206139b7858286016138b7565b9150509250929050565b60006bffffffffffffffffffffffff82169050919050565b6139e2816139c1565b82525050565b60006020820190506139fd60008301846139d9565b92915050565b60008060408385031215613a1a57613a196136e5565b5b6000613a28858286016138b7565b9250506020613a39858286016138b7565b9150509250929050565b600061ffff82169050919050565b613a5a81613a43565b82525050565b6000602082019050613a756000830184613a51565b92915050565b600080600060608486031215613a9457613a936136e5565b5b6000613aa28682870161396c565b9350506020613ab38682870161396c565b9250506040613ac4868287016138b7565b9150509250925092565b600060ff82169050919050565b613ae481613ace565b82525050565b6000602082019050613aff6000830184613adb565b92915050565b6000613b10826138f9565b9050919050565b613b2081613b05565b8114613b2b57600080fd5b50565b600081359050613b3d81613b17565b92915050565b600060208284031215613b5957613b586136e5565b5b6000613b6784828501613b2e565b91505092915050565b600060208284031215613b8657613b856136e5565b5b6000613b948482850161396c565b91505092915050565b613ba681613896565b82525050565b6000602082019050613bc16000830184613b9d565b92915050565b613bd081613774565b8114613bdb57600080fd5b50565b600081359050613bed81613bc7565b92915050565b60008060408385031215613c0a57613c096136e5565b5b6000613c188582860161396c565b9250506020613c2985828601613bde565b9150509250929050565b613c3c81613b05565b82525050565b6000602082019050613c576000830184613c33565b92915050565b6000606082019050613c726000830186613b9d565b613c7f6020830185613b9d565b613c8c6040830184613c33565b949350505050565b600080fd5b600080fd5b7f4e487b7100000000000000000000000000000000000000000000000000000000600052604160045260246000fd5b613cd68261382a565b810181811067ffffffffffffffff82111715613cf557613cf4613c9e565b5b80604052505050565b6000613d086136db565b9050613d148282613ccd565b919050565b600067ffffffffffffffff821115613d3457613d33613c9e565b5b613d3d8261382a565b9050602081019050919050565b82818337600083830152505050565b6000613d6c613d6784613d19565b613cfe565b905082815260208101848484011115613d8857613d87613c99565b5b613d93848285613d4a565b509392505050565b600082601f830112613db057613daf613c94565b5b8135613dc0848260208601613d59565b91505092915050565b60008060008060808587031215613de357613de26136e5565b5b6000613df18782880161396c565b9450506020613e028782880161396c565b9350506040613e13878288016138b7565b925050606085013567ffffffffffffffff811115613e3457613e336136ea565b5b613e4087828801613d9b565b91505092959194509250565b60008060408385031215613e6357613e626136e5565b5b6000613e71858286016138b7565b9250506020613e8285828601613b2e565b9150509250929050565b60008060408385031215613ea357613ea26136e5565b5b6000613eb18582860161396c565b9250506020613ec28582860161396c565b9150509250929050565b7f4e487b7100000000000000000000000000000000000000000000000000000000600052602260045260246000fd5b60006002820490506001821680613f1357607f821691505b602082108103613f2657613f25613ecc565b5b50919050565b7f4e487b7100000000000000000000000000000000000000000000000000000000600052601160045260246000fd5b6000613f6682613896565b9150613f7183613896565b9250828201905080821115613f8957613f88613f2c565b5b92915050565b6000613f9a82613896565b9150613fa583613896565b9250828202613fb381613896565b91508282048414831517613fca57613fc9613f2c565b5b5092915050565b6000613fdc82613896565b91507fffffffffffffffffffffffffffffffffffffffffffffffffffffffffffffffff820361400e5761400d613f2c565b5b600182019050919050565b7f4e487b7100000000000000000000000000000000000000000000000000000000600052603260045260246000fd5b7f4e487b7100000000000000000000000000000000000000000000000000000000600052601260045260246000fd5b6000819050919050565b6000819050919050565b60006140a66140a161409c84614077565b614081565b613896565b9050919050565b6140b68161408b565b82525050565b60006060820190506140d160008301866140ad565b6140de6020830185613b9d565b6140eb6040830184613b9d565b949350505050565b7f43616e206f6e6c79206d696e74203120746f6b656e207768656e20737065636960008201527f6679696e67204944000000000000000000000000000000000000000000000000602082015250565b600061414f6028836137ef565b915061415a826140f3565b604082019050919050565b6000602082019050818103600083015261417e81614142565b9050919050565b7f546f6b656e2049442065786365656473206d617820737570706c790000000000600082015250565b60006141bb601b836137ef565b91506141c682614185565b602082019050919050565b600060208201905081810360008301526141ea816141ae565b9050919050565b7f546f6b656e20616c7265616479206d696e746564000000000000000000000000600082015250565b60006142276014836137ef565b9150614232826141f1565b602082019050919050565b600060208201905081810360008301526142568161421a565b9050919050565b600061427861427361426e846137aa565b614081565b613896565b9050919050565b6142888161425d565b82525050565b60006060820190506142a360008301866140ad565b6142b06020830185613b9d565b6142bd604083018461427f565b949350505050565b600081905092915050565b50565b60006142e06000836142c5565b91506142eb826142d0565b600082019050919050565b6000614301826142d3565b9150819050919050565b7f4661696c656420746f20706179206d696e740000000000000000000000000000600082015250565b60006143416012836137ef565b915061434c8261430b565b602082019050919050565b6000602082019050818103600083015261437081614334565b9050919050565b600061438282613896565b915061438d83613896565b92508261439d5761439c614048565b5b828204905092915050565b60006040820190506143bd6000830185613b9d565b6143ca6020830184613b9d565b9392505050565b60006143dc82613896565b91506143e783613896565b92508282039050818111156143ff576143fe613f2c565b5b92915050565b7f4661696c656420746f2072657475726e206f6666657200000000000000000000600082015250565b600061443b6016836137ef565b915061444682614405565b602082019050919050565b6000602082019050818103600083015261446a8161442e565b9050919050565b7f4661696c656420746f2070617920726f79616c74696573000000000000000000600082015250565b60006144a76017836137ef565b91506144b282614471565b602082019050919050565b600060208201905081810360008301526144d68161449a565b9050919050565b7f4661696c656420746f2072657475726e2070726576696f7573206f6666657200600082015250565b6000614513601f836137ef565b915061451e826144dd565b602082019050919050565b6000602082019050818103600083015261454281614506565b9050919050565b7f4661696c656420746f2070617920726f79616c7469657320666f72207265766f60008201527f6b65000000000000000000000000000000000000000000000000000000000000602082015250565b60006145a56022836137ef565b91506145b082614549565b604082019050919050565b600060208201905081810360008301526145d481614598565b9050919050565b600081905092915050565b60008190508160005260206000209050919050565b6000815461460881613efb565b61461281866145db565b9450600182166000811461462d576001811461464257614675565b60ff1983168652811515820286019350614675565b61464b856145e6565b60005b8381101561466d5781548189015260018201915060208101905061464e565b838801955050505b50505092915050565b7f2f00000000000000000000000000000000000000000000000000000000000000600082015250565b60006146b46001836145db565b91506146bf8261467e565b600182019050919050565b60006146d5826137e4565b6146df81856145db565b93506146ef818560208601613800565b80840191505092915050565b600061470782866145fb565b9150614712826146a7565b915061471e82856146ca565b915061472a82846145fb565b9150819050949350505050565b7f416d6f756e742065786365656473206d617820737570706c7900000000000000600082015250565b600061476d6019836137ef565b915061477882614737565b602082019050919050565b6000602082019050818103600083015261479c81614760565b9050919050565b7f4e6f7420656e6f75676820746f6b656e7320617661696c61626c650000000000600082015250565b60006147d9601b836137ef565b91506147e4826147a3565b602082019050919050565b60006020820190508181036000830152614808816147cc565b9050919050565b6000819050919050565b61482a61482582613896565b61480f565b82525050565b60008160601b9050919050565b600061484882614830565b9050919050565b600061485a8261483d565b9050919050565b61487261486d82613919565b61484f565b82525050565b60006148848287614819565b6020820191506148948286614819565b6020820191506148a48285614861565b6014820191506148b48284614819565b60208201915081905095945050505050565b60006148d182613896565b91506148dc83613896565b9250826148ec576148eb614048565b5b828206905092915050565b600060608201905061490c600083018661392b565b6149196020830185613b9d565b614926604083018461392b565b949350505050565b600081519050919050565b600082825260208201905092915050565b60006149558261492e565b61495f8185614939565b935061496f818560208601613800565b6149788161382a565b840191505092915050565b6000608082019050614998600083018761392b565b6149a5602083018661392b565b6149b26040830185613b9d565b81810360608301526149c4818461494a565b905095945050505050565b6000815190506149de8161371b565b92915050565b6000602082840312156149fa576149f96136e5565b5b6000614a08848285016149cf565b91505092915050565b7f4661696c656420746f20706179206f776e657200000000000000000000000000600082015250565b6000614a476013836137ef565b9150614a5282614a11565b602082019050919050565b60006020820190508181036000830152614a7681614a3a565b9050919050565b6000604082019050614a92600083018561392b565b614a9f6020830184613b9d565b939250505056fea2646970667358221220255e6223db2ce477d8a88a2df87d8708c76b0e4ff6970111c7574f9b0c9823e864736f6c63430008140033697066733a2f2f62616679626569653378726832676e676b696e326a7235336362326e6e323461797832686e6532747a74776879796e75336d663633696a7a66616d697066733a2f2f62616679626569653378726832676e676b696e326a7235336362326e6e323461797832686e6532747a74776879796e75336d663633696a7a66616d2f75702d6f6e6c792e6a736f6e",
  "linkReferences": {},
  "deployedLinkReferences": {}
}