{
  "_format": "hh-sol-artifact-1",
  "contractName": "UpOnly",
  "sourceName": "contracts/UpOnly.sol",
  "abi": [
    {
      "inputs": [],
      "stateMutability": "nonpayable",
      "type": "constructor"
    },
    {
      "inputs": [
        {
          "internalType": "address",
          "name": "sender",
          "type": "address"
        },
        {
          "internalType": "uint256",
          "name": "tokenId",
          "type": "uint256"
        },
        {
          "internalType": "address",
          "name": "owner",
          "type": "address"
        }
      ],
      "name": "ERC721IncorrectOwner",
      "type": "error"
    },
    {
      "inputs": [
        {
          "internalType": "address",
          "name": "operator",
          "type": "address"
        },
        {
          "internalType": "uint256",
          "name": "tokenId",
          "type": "uint256"
        }
      ],
      "name": "ERC721InsufficientApproval",
      "type": "error"
    },
    {
      "inputs": [
        {
          "internalType": "address",
          "name": "approver",
          "type": "address"
        }
      ],
      "name": "ERC721InvalidApprover",
      "type": "error"
    },
    {
      "inputs": [
        {
          "internalType": "address",
          "name": "operator",
          "type": "address"
        }
      ],
      "name": "ERC721InvalidOperator",
      "type": "error"
    },
    {
      "inputs": [
        {
          "internalType": "address",
          "name": "owner",
          "type": "address"
        }
      ],
      "name": "ERC721InvalidOwner",
      "type": "error"
    },
    {
      "inputs": [
        {
          "internalType": "address",
          "name": "receiver",
          "type": "address"
        }
      ],
      "name": "ERC721InvalidReceiver",
      "type": "error"
    },
    {
      "inputs": [
        {
          "internalType": "address",
          "name": "sender",
          "type": "address"
        }
      ],
      "name": "ERC721InvalidSender",
      "type": "error"
    },
    {
      "inputs": [
        {
          "internalType": "uint256",
          "name": "tokenId",
          "type": "uint256"
        }
      ],
      "name": "ERC721NonexistentToken",
      "type": "error"
    },
    {
      "inputs": [],
      "name": "ExceedsMaxMintAmount",
      "type": "error"
    },
    {
      "inputs": [],
      "name": "ExceedsMaxSupply",
      "type": "error"
    },
    {
      "inputs": [],
      "name": "InsufficientPayment",
      "type": "error"
    },
    {
      "inputs": [],
      "name": "InvalidTransfer",
      "type": "error"
    },
    {
      "inputs": [],
      "name": "OfferTooLate",
      "type": "error"
    },
    {
      "inputs": [],
      "name": "OfferTooLow",
      "type": "error"
    },
    {
      "inputs": [],
      "name": "ReentrancyGuardReentrantCall",
      "type": "error"
    },
    {
      "inputs": [],
      "name": "SameAddress",
      "type": "error"
    },
    {
      "inputs": [],
      "name": "Unauthorized",
      "type": "error"
    },
    {
      "inputs": [],
      "name": "ZeroAddress",
      "type": "error"
    },
    {
      "inputs": [],
      "name": "ZeroMintAmount",
      "type": "error"
    },
    {
      "anonymous": false,
      "inputs": [
        {
          "indexed": true,
          "internalType": "address",
          "name": "owner",
          "type": "address"
        },
        {
          "indexed": true,
          "internalType": "address",
          "name": "approved",
          "type": "address"
        },
        {
          "indexed": true,
          "internalType": "uint256",
          "name": "tokenId",
          "type": "uint256"
        }
      ],
      "name": "Approval",
      "type": "event"
    },
    {
      "anonymous": false,
      "inputs": [
        {
          "indexed": true,
          "internalType": "address",
          "name": "owner",
          "type": "address"
        },
        {
          "indexed": true,
          "internalType": "address",
          "name": "operator",
          "type": "address"
        },
        {
          "indexed": false,
          "internalType": "bool",
          "name": "approved",
          "type": "bool"
        }
      ],
      "name": "ApprovalForAll",
      "type": "event"
    },
    {
      "anonymous": false,
      "inputs": [],
      "name": "ContractURIUpdated",
      "type": "event"
    },
    {
      "anonymous": false,
      "inputs": [
        {
          "indexed": true,
          "internalType": "uint256",
          "name": "token",
          "type": "uint256"
        },
        {
          "indexed": true,
          "internalType": "address",
          "name": "owner",
          "type": "address"
        },
        {
          "indexed": false,
          "internalType": "uint256",
          "name": "amount",
          "type": "uint256"
        },
        {
          "indexed": false,
          "internalType": "uint256",
          "name": "cost",
          "type": "uint256"
        },
        {
          "indexed": false,
          "internalType": "uint256",
          "name": "supply",
          "type": "uint256"
        }
      ],
      "name": "Mint",
      "type": "event"
    },
    {
      "anonymous": false,
      "inputs": [
        {
          "indexed": true,
          "internalType": "uint256",
          "name": "token",
          "type": "uint256"
        },
        {
          "indexed": true,
          "internalType": "address",
          "name": "recipient",
          "type": "address"
        },
        {
          "indexed": true,
          "internalType": "address",
          "name": "owner",
          "type": "address"
        },
        {
          "indexed": false,
          "internalType": "uint256",
          "name": "offer",
          "type": "uint256"
        }
      ],
      "name": "Offer",
      "type": "event"
    },
    {
      "anonymous": false,
      "inputs": [
        {
          "indexed": true,
          "internalType": "uint256",
          "name": "token",
          "type": "uint256"
        },
        {
          "indexed": true,
          "internalType": "address",
          "name": "offerer",
          "type": "address"
        },
        {
          "indexed": true,
          "internalType": "address",
          "name": "payee",
          "type": "address"
        },
        {
          "indexed": false,
          "internalType": "uint256",
          "name": "offer",
          "type": "uint256"
        },
        {
          "indexed": false,
          "internalType": "uint256",
          "name": "fee",
          "type": "uint256"
        }
      ],
      "name": "Payout",
      "type": "event"
    },
    {
      "anonymous": false,
      "inputs": [
        {
          "indexed": true,
          "internalType": "uint256",
          "name": "token",
          "type": "uint256"
        },
        {
          "indexed": true,
          "internalType": "address",
          "name": "recipient",
          "type": "address"
        },
        {
          "indexed": true,
          "internalType": "address",
          "name": "owner",
          "type": "address"
        },
        {
          "indexed": false,
          "internalType": "uint256",
          "name": "refund",
          "type": "uint256"
        },
        {
          "indexed": false,
          "internalType": "uint256",
          "name": "fee",
          "type": "uint256"
        }
      ],
      "name": "Revoke",
      "type": "event"
    },
    {
      "anonymous": false,
      "inputs": [
        {
          "indexed": true,
          "internalType": "address",
          "name": "oldAddress",
          "type": "address"
        },
        {
          "indexed": true,
          "internalType": "address",
          "name": "newAddress",
          "type": "address"
        }
      ],
      "name": "RoyaltyAddressUpdated",
      "type": "event"
    },
    {
      "anonymous": false,
      "inputs": [
        {
          "indexed": true,
          "internalType": "address",
          "name": "from",
          "type": "address"
        },
        {
          "indexed": true,
          "internalType": "address",
          "name": "to",
          "type": "address"
        },
        {
          "indexed": true,
          "internalType": "uint256",
          "name": "tokenId",
          "type": "uint256"
        }
      ],
      "name": "Transfer",
      "type": "event"
    },
    {
      "inputs": [
        {
          "internalType": "address",
          "name": "to",
          "type": "address"
        },
        {
          "internalType": "uint256",
          "name": "tokenId",
          "type": "uint256"
        }
      ],
      "name": "approve",
      "outputs": [],
      "stateMutability": "nonpayable",
      "type": "function"
    },
    {
      "inputs": [
        {
          "internalType": "address",
          "name": "owner",
          "type": "address"
        }
      ],
      "name": "balanceOf",
      "outputs": [
        {
          "internalType": "uint256",
          "name": "",
          "type": "uint256"
        }
      ],
      "stateMutability": "view",
      "type": "function"
    },
    {
      "inputs": [],
      "name": "baseExtension",
      "outputs": [
        {
          "internalType": "string",
          "name": "",
          "type": "string"
        }
      ],
      "stateMutability": "view",
      "type": "function"
    },
    {
      "inputs": [],
      "name": "baseURI",
      "outputs": [
        {
          "internalType": "string",
          "name": "",
          "type": "string"
        }
      ],
      "stateMutability": "view",
      "type": "function"
    },
    {
      "inputs": [],
      "name": "contractURI",
      "outputs": [
        {
          "internalType": "string",
          "name": "",
          "type": "string"
        }
      ],
      "stateMutability": "view",
      "type": "function"
    },
    {
      "inputs": [],
      "name": "cost",
      "outputs": [
        {
          "internalType": "uint96",
          "name": "",
          "type": "uint96"
        }
      ],
      "stateMutability": "view",
      "type": "function"
    },
    {
      "inputs": [
        {
          "internalType": "uint256",
          "name": "tokenId",
          "type": "uint256"
        }
      ],
      "name": "getApproved",
      "outputs": [
        {
          "internalType": "address",
          "name": "",
          "type": "address"
        }
      ],
      "stateMutability": "view",
      "type": "function"
    },
    {
      "inputs": [
        {
          "internalType": "address",
          "name": "owner",
          "type": "address"
        },
        {
          "internalType": "address",
          "name": "operator",
          "type": "address"
        }
      ],
      "name": "isApprovedForAll",
      "outputs": [
        {
          "internalType": "bool",
          "name": "",
          "type": "bool"
        }
      ],
      "stateMutability": "view",
      "type": "function"
    },
    {
      "inputs": [],
      "name": "maxMintAmount",
      "outputs": [
        {
          "internalType": "uint16",
          "name": "",
          "type": "uint16"
        }
      ],
      "stateMutability": "view",
      "type": "function"
    },
    {
      "inputs": [],
      "name": "maxSupply",
      "outputs": [
        {
          "internalType": "uint96",
          "name": "",
          "type": "uint96"
        }
      ],
      "stateMutability": "view",
      "type": "function"
    },
    {
      "inputs": [
        {
          "internalType": "uint256",
          "name": "mintAmount",
          "type": "uint256"
        },
        {
          "internalType": "uint256",
          "name": "tokenId",
          "type": "uint256"
        }
      ],
      "name": "mint",
      "outputs": [],
      "stateMutability": "payable",
      "type": "function"
    },
    {
      "inputs": [
        {
          "internalType": "uint256",
          "name": "mintAmount",
          "type": "uint256"
        }
      ],
      "name": "mint",
      "outputs": [],
      "stateMutability": "payable",
      "type": "function"
    },
    {
      "inputs": [],
      "name": "name",
      "outputs": [
        {
          "internalType": "string",
          "name": "",
          "type": "string"
        }
      ],
      "stateMutability": "view",
      "type": "function"
    },
    {
      "inputs": [
        {
          "internalType": "uint256",
          "name": "tokenId",
          "type": "uint256"
        }
      ],
      "name": "offer",
      "outputs": [],
      "stateMutability": "payable",
      "type": "function"
    },
    {
      "inputs": [
        {
          "internalType": "uint256",
          "name": "tokenId",
          "type": "uint256"
        },
        {
          "internalType": "address payable",
          "name": "recipient",
          "type": "address"
        }
      ],
      "name": "offer",
      "outputs": [],
      "stateMutability": "payable",
      "type": "function"
    },
    {
      "inputs": [
        {
          "internalType": "uint256",
          "name": "tokenId",
          "type": "uint256"
        }
      ],
      "name": "ownerOf",
      "outputs": [
        {
          "internalType": "address",
          "name": "",
          "type": "address"
        }
      ],
      "stateMutability": "view",
      "type": "function"
    },
    {
      "inputs": [
        {
          "internalType": "uint256",
          "name": "tokenId",
          "type": "uint256"
        }
      ],
      "name": "revoke",
      "outputs": [],
      "stateMutability": "payable",
      "type": "function"
    },
    {
      "inputs": [],
      "name": "royalty",
      "outputs": [
        {
          "internalType": "uint8",
          "name": "",
          "type": "uint8"
        }
      ],
      "stateMutability": "view",
      "type": "function"
    },
    {
      "inputs": [],
      "name": "royaltyAddress",
      "outputs": [
        {
          "internalType": "address payable",
          "name": "",
          "type": "address"
        }
      ],
      "stateMutability": "view",
      "type": "function"
    },
    {
      "inputs": [
        {
          "internalType": "address",
          "name": "from",
          "type": "address"
        },
        {
          "internalType": "address",
          "name": "to",
          "type": "address"
        },
        {
          "internalType": "uint256",
          "name": "tokenId",
          "type": "uint256"
        }
      ],
      "name": "safeTransferFrom",
      "outputs": [],
      "stateMutability": "nonpayable",
      "type": "function"
    },
    {
      "inputs": [
        {
          "internalType": "address",
          "name": "from",
          "type": "address"
        },
        {
          "internalType": "address",
          "name": "to",
          "type": "address"
        },
        {
          "internalType": "uint256",
          "name": "tokenId",
          "type": "uint256"
        },
        {
          "internalType": "bytes",
          "name": "data",
          "type": "bytes"
        }
      ],
      "name": "safeTransferFrom",
      "outputs": [],
      "stateMutability": "nonpayable",
      "type": "function"
    },
    {
      "inputs": [
        {
          "internalType": "address",
          "name": "operator",
          "type": "address"
        },
        {
          "internalType": "bool",
          "name": "approved",
          "type": "bool"
        }
      ],
      "name": "setApprovalForAll",
      "outputs": [],
      "stateMutability": "nonpayable",
      "type": "function"
    },
    {
      "inputs": [],
      "name": "supply",
      "outputs": [
        {
          "internalType": "uint32",
          "name": "",
          "type": "uint32"
        }
      ],
      "stateMutability": "view",
      "type": "function"
    },
    {
      "inputs": [
        {
          "internalType": "bytes4",
          "name": "interfaceId",
          "type": "bytes4"
        }
      ],
      "name": "supportsInterface",
      "outputs": [
        {
          "internalType": "bool",
          "name": "",
          "type": "bool"
        }
      ],
      "stateMutability": "view",
      "type": "function"
    },
    {
      "inputs": [],
      "name": "symbol",
      "outputs": [
        {
          "internalType": "string",
          "name": "",
          "type": "string"
        }
      ],
      "stateMutability": "view",
      "type": "function"
    },
    {
      "inputs": [
        {
          "internalType": "uint256",
          "name": "",
          "type": "uint256"
        }
      ],
      "name": "tokenData",
      "outputs": [
        {
          "internalType": "uint256",
          "name": "lastPrice",
          "type": "uint256"
        },
        {
          "internalType": "uint256",
          "name": "currentOffer",
          "type": "uint256"
        },
        {
          "internalType": "address payable",
          "name": "offerer",
          "type": "address"
        }
      ],
      "stateMutability": "view",
      "type": "function"
    },
    {
      "inputs": [
        {
          "internalType": "uint256",
          "name": "tokenId",
          "type": "uint256"
        }
      ],
      "name": "tokenURI",
      "outputs": [
        {
          "internalType": "string",
          "name": "",
          "type": "string"
        }
      ],
      "stateMutability": "view",
      "type": "function"
    },
    {
      "inputs": [
        {
          "internalType": "address",
          "name": "from",
          "type": "address"
        },
        {
          "internalType": "address",
          "name": "to",
          "type": "address"
        },
        {
          "internalType": "uint256",
          "name": "tokenId",
          "type": "uint256"
        }
      ],
      "name": "transferFrom",
      "outputs": [],
      "stateMutability": "nonpayable",
      "type": "function"
    },
    {
      "inputs": [
        {
          "internalType": "address payable",
          "name": "newRoyaltyAddress",
          "type": "address"
        }
      ],
      "name": "updateRoyaltyAddress",
      "outputs": [],
      "stateMutability": "nonpayable",
      "type": "function"
    }
  ],
  "bytecode": "0x6080604052662386f26fc10000600860006101000a8154816bffffffffffffffffffffffff02191690836bffffffffffffffffffffffff16021790555060836008600c6101000a8154816bffffffffffffffffffffffff02191690836bffffffffffffffffffffffff1602179055506000600860186101000a81548163ffffffff021916908363ffffffff160217905550600a6008601c6101000a81548161ffff021916908361ffff16021790555060036008601e6101000a81548160ff021916908360ff16021790555060405180608001604052806042815260200162004ffa6042913960099081620000f49190620004e4565b506040518060800160405280604f81526020016200503c604f9139600a90816200011f9190620004e4565b506040518060400160405280600581526020017f2e6a736f6e000000000000000000000000000000000000000000000000000000815250600b9081620001669190620004e4565b5073cdb0ba3bee883c1e56b115b39bb0f2315ce20c16600c60006101000a81548173ffffffffffffffffffffffffffffffffffffffff021916908373ffffffffffffffffffffffffffffffffffffffff160217905550348015620001c957600080fd5b506040518060400160405280600b81526020017f5465737420466c696768740000000000000000000000000000000000000000008152506040518060400160405280600281526020017f55500000000000000000000000000000000000000000000000000000000000008152508160009081620002479190620004e4565b508060019081620002599190620004e4565b5050506001600681905550620005cb565b600081519050919050565b7f4e487b7100000000000000000000000000000000000000000000000000000000600052604160045260246000fd5b7f4e487b7100000000000000000000000000000000000000000000000000000000600052602260045260246000fd5b60006002820490506001821680620002ec57607f821691505b602082108103620003025762000301620002a4565b5b50919050565b60008190508160005260206000209050919050565b60006020601f8301049050919050565b600082821b905092915050565b6000600883026200036c7fffffffffffffffffffffffffffffffffffffffffffffffffffffffffffffffff826200032d565b6200037886836200032d565b95508019841693508086168417925050509392505050565b6000819050919050565b6000819050919050565b6000620003c5620003bf620003b98462000390565b6200039a565b62000390565b9050919050565b6000819050919050565b620003e183620003a4565b620003f9620003f082620003cc565b8484546200033a565b825550505050565b600090565b6200041062000401565b6200041d818484620003d6565b505050565b5b8181101562000445576200043960008262000406565b60018101905062000423565b5050565b601f82111562000494576200045e8162000308565b62000469846200031d565b8101602085101562000479578190505b6200049162000488856200031d565b83018262000422565b50505b505050565b600082821c905092915050565b6000620004b96000198460080262000499565b1980831691505092915050565b6000620004d48383620004a6565b9150826002028217905092915050565b620004ef826200026a565b67ffffffffffffffff8111156200050b576200050a62000275565b5b620005178254620002d3565b6200052482828562000449565b600060209050601f8311600181146200055c576000841562000547578287015190505b620005538582620004c6565b865550620005c3565b601f1984166200056c8662000308565b60005b8281101562000596578489015182556001820191506020850194506020810190506200056f565b86831015620005b65784890151620005b2601f891682620004a6565b8355505b6001600288020188555050505b505050505050565b614a1f80620005db6000396000f3fe6080604052600436106101c25760003560e01c80636c0360eb116100f7578063b4b5b48f11610095578063c87b56dd11610064578063c87b56dd146105ff578063d5abeb011461063c578063e8a3d48514610667578063e985e9c514610692576101c2565b8063b4b5b48f14610550578063b88d4fde1461058f578063c46154b5146105b8578063c6682862146105d4576101c2565b806395d89b41116100d157806395d89b41146104b5578063a0712d68146104e0578063a22cb465146104fc578063ad2f852a14610525576101c2565b80636c0360eb1461043157806370a082311461045c578063761610fc14610499576101c2565b806320c5429b1161016457806329ee566c1161013e57806329ee566c1461037757806342842e0e146103a2578063519a2044146103cb5780636352211e146103f4576101c2565b806320c5429b14610307578063239c70ae1461032357806323b872dd1461034e576101c2565b8063081812fc116101a0578063081812fc1461025a578063095ea7b31461029757806313faede6146102c05780631b2ef1ca146102eb576101c2565b806301ffc9a7146101c7578063047fc9aa1461020457806306fdde031461022f575b600080fd5b3480156101d357600080fd5b506101ee60048036038101906101e99190613786565b6106cf565b6040516101fb91906137ce565b60405180910390f35b34801561021057600080fd5b506102196107b1565b6040516102269190613808565b60405180910390f35b34801561023b57600080fd5b506102446107c7565b60405161025191906138b3565b60405180910390f35b34801561026657600080fd5b50610281600480360381019061027c919061390b565b610859565b60405161028e9190613979565b60405180910390f35b3480156102a357600080fd5b506102be60048036038101906102b991906139c0565b610875565b005b3480156102cc57600080fd5b506102d561088b565b6040516102e29190613a27565b60405180910390f35b61030560048036038101906103009190613a42565b6108a9565b005b610321600480360381019061031c919061390b565b610f2c565b005b34801561032f57600080fd5b506103386112c1565b6040516103459190613a9f565b60405180910390f35b34801561035a57600080fd5b5061037560048036038101906103709190613aba565b6112d5565b005b34801561038357600080fd5b5061038c61132a565b6040516103999190613b29565b60405180910390f35b3480156103ae57600080fd5b506103c960048036038101906103c49190613aba565b61133d565b005b3480156103d757600080fd5b506103f260048036038101906103ed9190613b82565b61135d565b005b34801561040057600080fd5b5061041b6004803603810190610416919061390b565b611597565b6040516104289190613979565b60405180910390f35b34801561043d57600080fd5b506104466115a9565b60405161045391906138b3565b60405180910390f35b34801561046857600080fd5b50610483600480360381019061047e9190613baf565b611637565b6040516104909190613beb565b60405180910390f35b6104b360048036038101906104ae919061390b565b6116f1565b005b3480156104c157600080fd5b506104ca6116fe565b6040516104d791906138b3565b60405180910390f35b6104fa60048036038101906104f5919061390b565b611790565b005b34801561050857600080fd5b50610523600480360381019061051e9190613c32565b61179e565b005b34801561053157600080fd5b5061053a6117b4565b6040516105479190613c81565b60405180910390f35b34801561055c57600080fd5b506105776004803603810190610572919061390b565b6117da565b60405161058693929190613c9c565b60405180910390f35b34801561059b57600080fd5b506105b660048036038101906105b19190613e08565b611824565b005b6105d260048036038101906105cd9190613e8b565b611849565b005b3480156105e057600080fd5b506105e9611d2b565b6040516105f691906138b3565b60405180910390f35b34801561060b57600080fd5b506106266004803603810190610621919061390b565b611db9565b60405161063391906138b3565b60405180910390f35b34801561064857600080fd5b50610651611e22565b60405161065e9190613a27565b60405180910390f35b34801561067357600080fd5b5061067c611e40565b60405161068991906138b3565b60405180910390f35b34801561069e57600080fd5b506106b960048036038101906106b49190613ecb565b611ece565b6040516106c691906137ce565b60405180910390f35b60007f80ac58cd000000000000000000000000000000000000000000000000000000007bffffffffffffffffffffffffffffffffffffffffffffffffffffffff1916827bffffffffffffffffffffffffffffffffffffffffffffffffffffffff1916148061079a57507f5b5e139f000000000000000000000000000000000000000000000000000000007bffffffffffffffffffffffffffffffffffffffffffffffffffffffff1916827bffffffffffffffffffffffffffffffffffffffffffffffffffffffff1916145b806107aa57506107a982611f62565b5b9050919050565b600860189054906101000a900463ffffffff1681565b6060600080546107d690613f3a565b80601f016020809104026020016040519081016040528092919081815260200182805461080290613f3a565b801561084f5780601f106108245761010080835404028352916020019161084f565b820191906000526020600020905b81548152906001019060200180831161083257829003601f168201915b5050505050905090565b600061086482611fcc565b5061086e82612054565b9050919050565b6108878282610882612091565b612099565b5050565b600860009054906101000a90046bffffffffffffffffffffffff1681565b6108b16120ab565b600082036108eb576040517f215b990c00000000000000000000000000000000000000000000000000000000815260040160405180910390fd5b6008601c9054906101000a900461ffff1661ffff1661090933611637565b836109149190613f9a565b111561094c576040517fbb954e0100000000000000000000000000000000000000000000000000000000815260040160405180910390fd5b6008600c9054906101000a90046bffffffffffffffffffffffff166bffffffffffffffffffffffff1682600860189054906101000a900463ffffffff1663ffffffff166109999190613f9a565b11156109d1576040517fc30436e900000000000000000000000000000000000000000000000000000000815260040160405180910390fd5b81600860009054906101000a90046bffffffffffffffffffffffff166bffffffffffffffffffffffff16610a059190613fce565b341015610a3e576040517fcd1c886700000000000000000000000000000000000000000000000000000000815260040160405180910390fd5b60008103610c61576000610a51836120f1565b90506000805b6008600c9054906101000a90046bffffffffffffffffffffffff166bffffffffffffffffffffffff16811015610ac7576000600760008381526020019081526020016000206000015403610ab4578180610ab090614010565b9250505b8080610abf90614010565b915050610a57565b5060005b84811015610c1e576000610ae1828385036122b5565b90506000848281518110610af857610af7614058565b5b602002602001015190508460018486030381518110610b1a57610b19614058565b5b6020026020010151858381518110610b3557610b34614058565b5b602002602001018181525050600860009054906101000a90046bffffffffffffffffffffffff166bffffffffffffffffffffffff166007600083815260200190815260200160002060000181905550610b8e33826122fa565b3373ffffffffffffffffffffffffffffffffffffffff16817fac16e72d20ec8a4e921adfabdaa8569b265795be5609da925d82b16f8330a38460018a3481610bd957610bd8614087565b5b04600188600860189054906101000a900463ffffffff1663ffffffff160101604051610c07939291906140fb565b60405180910390a350508080600101915050610acb565b5083600860189054906101000a900463ffffffff1663ffffffff1601600860186101000a81548163ffffffff021916908363ffffffff1602179055505050610e51565b60018214610ca4576040517f08c379a0000000000000000000000000000000000000000000000000000000008152600401610c9b906141a4565b60405180910390fd5b6008600c9054906101000a90046bffffffffffffffffffffffff166bffffffffffffffffffffffff168110610d0e576040517f08c379a0000000000000000000000000000000000000000000000000000000008152600401610d0590614210565b60405180910390fd5b6000600760008381526020019081526020016000206000015414610d67576040517f08c379a0000000000000000000000000000000000000000000000000000000008152600401610d5e9061427c565b60405180910390fd5b600860009054906101000a90046bffffffffffffffffffffffff166bffffffffffffffffffffffff166007600083815260200190815260200160002060000181905550610db433826122fa565b6001600860189054906101000a900463ffffffff1601600860186101000a81548163ffffffff021916908363ffffffff1602179055503373ffffffffffffffffffffffffffffffffffffffff16817fac16e72d20ec8a4e921adfabdaa8569b265795be5609da925d82b16f8330a384600134600860189054906101000a900463ffffffff16604051610e48939291906142cd565b60405180910390a35b6000600c60009054906101000a900473ffffffffffffffffffffffffffffffffffffffff1673ffffffffffffffffffffffffffffffffffffffff1634604051610e9990614335565b60006040518083038185875af1925050503d8060008114610ed6576040519150601f19603f3d011682016040523d82523d6000602084013e610edb565b606091505b5050905080610f1f576040517f08c379a0000000000000000000000000000000000000000000000000000000008152600401610f1690614396565b60405180910390fd5b50610f28612318565b5050565b610f346120ab565b6007600082815260200190815260200160002060020160009054906101000a900473ffffffffffffffffffffffffffffffffffffffff1673ffffffffffffffffffffffffffffffffffffffff163373ffffffffffffffffffffffffffffffffffffffff1614610fcf576040517f82b4290000000000000000000000000000000000000000000000000000000000815260040160405180910390fd5b60006007600083815260200190815260200160002060020160009054906101000a900473ffffffffffffffffffffffffffffffffffffffff169050600060076000848152602001908152602001600020600101549050600060648261103491906143b6565b905060006007600086815260200190815260200160002060020160006101000a81548173ffffffffffffffffffffffffffffffffffffffff021916908373ffffffffffffffffffffffffffffffffffffffff160217905550600760008581526020019081526020016000206000015460076000868152602001908152602001600020600101819055506110c684611597565b73ffffffffffffffffffffffffffffffffffffffff168373ffffffffffffffffffffffffffffffffffffffff16857f964ffb09ac3679f2df0814f4e921d922d62967fb4cf0f6deff062df673d56bd085856040516111259291906143e7565b60405180910390a460008373ffffffffffffffffffffffffffffffffffffffff1682846111529190614410565b60405161115e90614335565b60006040518083038185875af1925050503d806000811461119b576040519150601f19603f3d011682016040523d82523d6000602084013e6111a0565b606091505b50509050806111e4576040517f08c379a00000000000000000000000000000000000000000000000000000000081526004016111db90614490565b60405180910390fd5b600c60009054906101000a900473ffffffffffffffffffffffffffffffffffffffff1673ffffffffffffffffffffffffffffffffffffffff168260405161122a90614335565b60006040518083038185875af1925050503d8060008114611267576040519150601f19603f3d011682016040523d82523d6000602084013e61126c565b606091505b505080915050806112b2576040517f08c379a00000000000000000000000000000000000000000000000000000000081526004016112a9906144fc565b60405180910390fd5b505050506112be612318565b50565b6008601c9054906101000a900461ffff1681565b60006007600083815260200190815260200160002060020160009054906101000a900473ffffffffffffffffffffffffffffffffffffffff16905061131982612322565b6113248482846126b7565b50505050565b6008601e9054906101000a900460ff1681565b61135883838360405180602001604052806000815250611824565b505050565b600c60009054906101000a900473ffffffffffffffffffffffffffffffffffffffff1673ffffffffffffffffffffffffffffffffffffffff163373ffffffffffffffffffffffffffffffffffffffff16146113e4576040517f82b4290000000000000000000000000000000000000000000000000000000000815260040160405180910390fd5b600073ffffffffffffffffffffffffffffffffffffffff168173ffffffffffffffffffffffffffffffffffffffff160361144a576040517fd92e233d00000000000000000000000000000000000000000000000000000000815260040160405180910390fd5b600c60009054906101000a900473ffffffffffffffffffffffffffffffffffffffff1673ffffffffffffffffffffffffffffffffffffffff168173ffffffffffffffffffffffffffffffffffffffff16036114d1576040517f367558c300000000000000000000000000000000000000000000000000000000815260040160405180910390fd5b6000600c60009054906101000a900473ffffffffffffffffffffffffffffffffffffffff16905081600c60006101000a81548173ffffffffffffffffffffffffffffffffffffffff021916908373ffffffffffffffffffffffffffffffffffffffff1602179055508173ffffffffffffffffffffffffffffffffffffffff168173ffffffffffffffffffffffffffffffffffffffff167f0192b7830ff62527740587c7a633510971963c1822ba42f29d53dee365f7a7fd60405160405180910390a35050565b60006115a282611fcc565b9050919050565b600980546115b690613f3a565b80601f01602080910402602001604051908101604052809291908181526020018280546115e290613f3a565b801561162f5780601f106116045761010080835404028352916020019161162f565b820191906000526020600020905b81548152906001019060200180831161161257829003601f168201915b505050505081565b60008073ffffffffffffffffffffffffffffffffffffffff168273ffffffffffffffffffffffffffffffffffffffff16036116aa5760006040517f89c62b640000000000000000000000000000000000000000000000000000000081526004016116a19190613979565b60405180910390fd5b600360008373ffffffffffffffffffffffffffffffffffffffff1673ffffffffffffffffffffffffffffffffffffffff168152602001908152602001600020549050919050565b6116fb8133611849565b50565b60606001805461170d90613f3a565b80601f016020809104026020016040519081016040528092919081815260200182805461173990613f3a565b80156117865780601f1061175b57610100808354040283529160200191611786565b820191906000526020600020905b81548152906001019060200180831161176957829003601f168201915b5050505050905090565b61179b8160006108a9565b50565b6117b06117a9612091565b83836127b9565b5050565b600c60009054906101000a900473ffffffffffffffffffffffffffffffffffffffff1681565b60076020528060005260406000206000915090508060000154908060010154908060020160009054906101000a900473ffffffffffffffffffffffffffffffffffffffff16905083565b61182f8484846112d5565b61184361183a612091565b85858585612928565b50505050565b6118516120ab565b600760008381526020019081526020016000206000015434116118a0576040517f72351e5300000000000000000000000000000000000000000000000000000000815260040160405180910390fd5b600073ffffffffffffffffffffffffffffffffffffffff168173ffffffffffffffffffffffffffffffffffffffff1603611906576040517fd92e233d00000000000000000000000000000000000000000000000000000000815260040160405180910390fd5b600c82036119ab5760006064600560076000868152602001908152602001600020600001546119359190613fce565b61193f91906143b6565b90508060076000858152602001908152602001600020600001546119639190613f9a565b341161199b576040517f72351e5300000000000000000000000000000000000000000000000000000000815260040160405180910390fd5b6119a58383612ad9565b50611d1f565b60006007600084815260200190815260200160002060020160009054906101000a900473ffffffffffffffffffffffffffffffffffffffff169050600060076000858152602001908152602001600020600101549050826007600086815260200190815260200160002060020160006101000a81548173ffffffffffffffffffffffffffffffffffffffff021916908373ffffffffffffffffffffffffffffffffffffffff160217905550346007600086815260200190815260200160002060010181905550611a7a84611597565b73ffffffffffffffffffffffffffffffffffffffff168373ffffffffffffffffffffffffffffffffffffffff16857f3d8edb263c4b80dc96dbb93604b0b3e2cfbb834c7ea767aca6307c33d300a0c434604051611ad79190613beb565b60405180910390a4600073ffffffffffffffffffffffffffffffffffffffff168273ffffffffffffffffffffffffffffffffffffffff1614611d1c576000606482611b2291906143b6565b9050611b2d85611597565b73ffffffffffffffffffffffffffffffffffffffff168373ffffffffffffffffffffffffffffffffffffffff16867f964ffb09ac3679f2df0814f4e921d922d62967fb4cf0f6deff062df673d56bd08585604051611b8c9291906143e7565b60405180910390a460008373ffffffffffffffffffffffffffffffffffffffff168284611bb99190614410565b604051611bc590614335565b60006040518083038185875af1925050503d8060008114611c02576040519150601f19603f3d011682016040523d82523d6000602084013e611c07565b606091505b5050905080611c4b576040517f08c379a0000000000000000000000000000000000000000000000000000000008152600401611c4290614568565b60405180910390fd5b600c60009054906101000a900473ffffffffffffffffffffffffffffffffffffffff1673ffffffffffffffffffffffffffffffffffffffff1682604051611c9190614335565b60006040518083038185875af1925050503d8060008114611cce576040519150601f19603f3d011682016040523d82523d6000602084013e611cd3565b606091505b50508091505080611d19576040517f08c379a0000000000000000000000000000000000000000000000000000000008152600401611d10906145fa565b60405180910390fd5b50505b50505b611d27612318565b5050565b600b8054611d3890613f3a565b80601f0160208091040260200160405190810160405280929190818152602001828054611d6490613f3a565b8015611db15780601f10611d8657610100808354040283529160200191611db1565b820191906000526020600020905b815481529060010190602001808311611d9457829003601f168201915b505050505081565b6060611dc482611fcc565b506000611dcf612e24565b90506000815111611def5760405180602001604052806000815250611e1a565b80611df984612e3b565b604051602001611e0a929190614656565b6040516020818303038152906040525b915050919050565b6008600c9054906101000a90046bffffffffffffffffffffffff1681565b600a8054611e4d90613f3a565b80601f0160208091040260200160405190810160405280929190818152602001828054611e7990613f3a565b8015611ec65780601f10611e9b57610100808354040283529160200191611ec6565b820191906000526020600020905b815481529060010190602001808311611ea957829003601f168201915b505050505081565b6000600560008473ffffffffffffffffffffffffffffffffffffffff1673ffffffffffffffffffffffffffffffffffffffff16815260200190815260200160002060008373ffffffffffffffffffffffffffffffffffffffff1673ffffffffffffffffffffffffffffffffffffffff16815260200190815260200160002060009054906101000a900460ff16905092915050565b60007f01ffc9a7000000000000000000000000000000000000000000000000000000007bffffffffffffffffffffffffffffffffffffffffffffffffffffffff1916827bffffffffffffffffffffffffffffffffffffffffffffffffffffffff1916149050919050565b600080611fd883612f09565b9050600073ffffffffffffffffffffffffffffffffffffffff168173ffffffffffffffffffffffffffffffffffffffff160361204b57826040517f7e2732890000000000000000000000000000000000000000000000000000000081526004016120429190613beb565b60405180910390fd5b80915050919050565b60006004600083815260200190815260200160002060009054906101000a900473ffffffffffffffffffffffffffffffffffffffff169050919050565b600033905090565b6120a68383836001612f46565b505050565b6002600654036120e7576040517f3ee5aeb500000000000000000000000000000000000000000000000000000000815260040160405180910390fd5b6002600681905550565b60606008600c9054906101000a90046bffffffffffffffffffffffff166bffffffffffffffffffffffff1682111561215e576040517f08c379a0000000000000000000000000000000000000000000000000000000008152600401612155906146c6565b60405180910390fd5b60006008600c9054906101000a90046bffffffffffffffffffffffff166bffffffffffffffffffffffff1667ffffffffffffffff8111156121a2576121a1613cdd565b5b6040519080825280602002602001820160405280156121d05781602001602082028036833780820191505090505b5090506000805b6008600c9054906101000a90046bffffffffffffffffffffffff166bffffffffffffffffffffffff16811015612267576000600760008381526020019081526020016000206000015403612254578083838151811061223957612238614058565b5b602002602001018181525050818061225090614010565b9250505b808061225f90614010565b9150506121d7565b50838110156122ab576040517f08c379a00000000000000000000000000000000000000000000000000000000081526004016122a290614732565b60405180910390fd5b8192505050919050565b600081424433866040516020016122cf94939291906147bb565b6040516020818303038152906040528051906020012060001c6122f29190614809565b905092915050565b61231482826040518060200160405280600081525061310b565b5050565b6001600681905550565b61232a6120ab565b60006007600083815260200190815260200160002060405180606001604052908160008201548152602001600182015481526020016002820160009054906101000a900473ffffffffffffffffffffffffffffffffffffffff1673ffffffffffffffffffffffffffffffffffffffff1673ffffffffffffffffffffffffffffffffffffffff1681525050905080600001518160200151116123f7576040517f72351e5300000000000000000000000000000000000000000000000000000000815260040160405180910390fd5b600081602001519050600060646008601e9054906101000a900460ff1660ff16836124229190613fce565b61242c91906143b6565b9050600061243985611597565b90508260076000878152602001908152602001600020600001819055506000600760008781526020019081526020016000206001018190555060006007600087815260200190815260200160002060020160006101000a81548173ffffffffffffffffffffffffffffffffffffffff021916908373ffffffffffffffffffffffffffffffffffffffff1602179055508073ffffffffffffffffffffffffffffffffffffffff16846040015173ffffffffffffffffffffffffffffffffffffffff16867f7996815e3da58528c7ffbaf978448149270f08e2250da287909e5cd7ad98a41f868660405161252c9291906143e7565b60405180910390a460008173ffffffffffffffffffffffffffffffffffffffff1683856125599190614410565b60405161256590614335565b60006040518083038185875af1925050503d80600081146125a2576040519150601f19603f3d011682016040523d82523d6000602084013e6125a7565b606091505b50509050806125e2576040517f2f35253100000000000000000000000000000000000000000000000000000000815260040160405180910390fd5b600c60009054906101000a900473ffffffffffffffffffffffffffffffffffffffff1673ffffffffffffffffffffffffffffffffffffffff168360405161262890614335565b60006040518083038185875af1925050503d8060008114612665576040519150601f19603f3d011682016040523d82523d6000602084013e61266a565b606091505b505080915050806126a7576040517f2f35253100000000000000000000000000000000000000000000000000000000815260040160405180910390fd5b50505050506126b4612318565b50565b600073ffffffffffffffffffffffffffffffffffffffff168273ffffffffffffffffffffffffffffffffffffffff16036127295760006040517f64a0ae920000000000000000000000000000000000000000000000000000000081526004016127209190613979565b60405180910390fd5b600061273d8383612738612091565b61312f565b90508373ffffffffffffffffffffffffffffffffffffffff168173ffffffffffffffffffffffffffffffffffffffff16146127b3578382826040517f64283d7b0000000000000000000000000000000000000000000000000000000081526004016127aa9392919061483a565b60405180910390fd5b50505050565b600073ffffffffffffffffffffffffffffffffffffffff168273ffffffffffffffffffffffffffffffffffffffff160361282a57816040517f5b08ba180000000000000000000000000000000000000000000000000000000081526004016128219190613979565b60405180910390fd5b80600560008573ffffffffffffffffffffffffffffffffffffffff1673ffffffffffffffffffffffffffffffffffffffff16815260200190815260200160002060008473ffffffffffffffffffffffffffffffffffffffff1673ffffffffffffffffffffffffffffffffffffffff16815260200190815260200160002060006101000a81548160ff0219169083151502179055508173ffffffffffffffffffffffffffffffffffffffff168373ffffffffffffffffffffffffffffffffffffffff167f17307eab39ab6107e8899845ad3d59bd9653f200f220920489ca2b5937696c318360405161291b91906137ce565b60405180910390a3505050565b60008373ffffffffffffffffffffffffffffffffffffffff163b1115612ad2578273ffffffffffffffffffffffffffffffffffffffff1663150b7a02868685856040518563ffffffff1660e01b815260040161298794939291906148c6565b6020604051808303816000875af19250505080156129c357506040513d601f19601f820116820180604052508101906129c09190614927565b60015b612a47573d80600081146129f3576040519150601f19603f3d011682016040523d82523d6000602084013e6129f8565b606091505b506000815103612a3f57836040517f64a0ae92000000000000000000000000000000000000000000000000000000008152600401612a369190613979565b60405180910390fd5b805181602001fd5b63150b7a0260e01b7bffffffffffffffffffffffffffffffffffffffffffffffffffffffff1916817bffffffffffffffffffffffffffffffffffffffffffffffffffffffff191614612ad057836040517f64a0ae92000000000000000000000000000000000000000000000000000000008152600401612ac79190613979565b60405180910390fd5b505b5050505050565b6000612ae483611597565b90503460076000858152602001908152602001600020600001819055506000600760008581526020019081526020016000206001018190555060006007600085815260200190815260200160002060020160006101000a81548173ffffffffffffffffffffffffffffffffffffffff021916908373ffffffffffffffffffffffffffffffffffffffff1602179055508073ffffffffffffffffffffffffffffffffffffffff168273ffffffffffffffffffffffffffffffffffffffff16847f3d8edb263c4b80dc96dbb93604b0b3e2cfbb834c7ea767aca6307c33d300a0c434604051612bd19190613beb565b60405180910390a4600060646008601e9054906101000a900460ff1660ff1634612bfb9190613fce565b612c0591906143b6565b905060008134612c159190614410565b905060008373ffffffffffffffffffffffffffffffffffffffff1682604051612c3d90614335565b60006040518083038185875af1925050503d8060008114612c7a576040519150601f19603f3d011682016040523d82523d6000602084013e612c7f565b606091505b5050905080612cc3576040517f08c379a0000000000000000000000000000000000000000000000000000000008152600401612cba906149a0565b60405180910390fd5b600c60009054906101000a900473ffffffffffffffffffffffffffffffffffffffff1673ffffffffffffffffffffffffffffffffffffffff1683604051612d0990614335565b60006040518083038185875af1925050503d8060008114612d46576040519150601f19603f3d011682016040523d82523d6000602084013e612d4b565b606091505b50508091505080612d91576040517f08c379a0000000000000000000000000000000000000000000000000000000008152600401612d88906144fc565b60405180910390fd5b612d9d848660016127b9565b612da88486886126b7565b612db4848660006127b9565b8373ffffffffffffffffffffffffffffffffffffffff168573ffffffffffffffffffffffffffffffffffffffff16877f7996815e3da58528c7ffbaf978448149270f08e2250da287909e5cd7ad98a41f3487604051612e149291906143e7565b60405180910390a4505050505050565b606060405180602001604052806000815250905090565b606060006001612e4a84613349565b01905060008167ffffffffffffffff811115612e6957612e68613cdd565b5b6040519080825280601f01601f191660200182016040528015612e9b5781602001600182028036833780820191505090505b509050600082602001820190505b600115612efe578080600190039150507f3031323334353637383961626364656600000000000000000000000000000000600a86061a8153600a8581612ef257612ef1614087565b5b04945060008503612ea9575b819350505050919050565b60006002600083815260200190815260200160002060009054906101000a900473ffffffffffffffffffffffffffffffffffffffff169050919050565b8080612f7f5750600073ffffffffffffffffffffffffffffffffffffffff168273ffffffffffffffffffffffffffffffffffffffff1614155b156130b3576000612f8f84611fcc565b9050600073ffffffffffffffffffffffffffffffffffffffff168373ffffffffffffffffffffffffffffffffffffffff1614158015612ffa57508273ffffffffffffffffffffffffffffffffffffffff168173ffffffffffffffffffffffffffffffffffffffff1614155b801561300d575061300b8184611ece565b155b1561304f57826040517fa9fbf51f0000000000000000000000000000000000000000000000000000000081526004016130469190613979565b60405180910390fd5b81156130b157838573ffffffffffffffffffffffffffffffffffffffff168273ffffffffffffffffffffffffffffffffffffffff167f8c5be1e5ebec7d5bd14f71427d1e84f3dd0314c0f7b2291e5b200ac8c7c3b92560405160405180910390a45b505b836004600085815260200190815260200160002060006101000a81548173ffffffffffffffffffffffffffffffffffffffff021916908373ffffffffffffffffffffffffffffffffffffffff16021790555050505050565b613115838361349c565b61312a613120612091565b6000858585612928565b505050565b60008061313b84612f09565b9050600073ffffffffffffffffffffffffffffffffffffffff168373ffffffffffffffffffffffffffffffffffffffff161461317d5761317c818486613595565b5b600073ffffffffffffffffffffffffffffffffffffffff168173ffffffffffffffffffffffffffffffffffffffff161461320e576131bf600085600080612f46565b6001600360008373ffffffffffffffffffffffffffffffffffffffff1673ffffffffffffffffffffffffffffffffffffffff168152602001908152602001600020600082825403925050819055505b600073ffffffffffffffffffffffffffffffffffffffff168573ffffffffffffffffffffffffffffffffffffffff1614613291576001600360008773ffffffffffffffffffffffffffffffffffffffff1673ffffffffffffffffffffffffffffffffffffffff168152602001908152602001600020600082825401925050819055505b846002600086815260200190815260200160002060006101000a81548173ffffffffffffffffffffffffffffffffffffffff021916908373ffffffffffffffffffffffffffffffffffffffff160217905550838573ffffffffffffffffffffffffffffffffffffffff168273ffffffffffffffffffffffffffffffffffffffff167fddf252ad1be2c89b69c2b068fc378daa952ba7f163c4a11628f55a4df523b3ef60405160405180910390a4809150509392505050565b600080600090507a184f03e93ff9f4daa797ed6e38ed64bf6a1f01000000000000000083106133a7577a184f03e93ff9f4daa797ed6e38ed64bf6a1f010000000000000000838161339d5761339c614087565b5b0492506040810190505b6d04ee2d6d415b85acef810000000083106133e4576d04ee2d6d415b85acef810000000083816133da576133d9614087565b5b0492506020810190505b662386f26fc10000831061341357662386f26fc10000838161340957613408614087565b5b0492506010810190505b6305f5e100831061343c576305f5e100838161343257613431614087565b5b0492506008810190505b612710831061346157612710838161345757613456614087565b5b0492506004810190505b60648310613484576064838161347a57613479614087565b5b0492506002810190505b600a8310613493576001810190505b80915050919050565b600073ffffffffffffffffffffffffffffffffffffffff168273ffffffffffffffffffffffffffffffffffffffff160361350e5760006040517f64a0ae920000000000000000000000000000000000000000000000000000000081526004016135059190613979565b60405180910390fd5b600061351c8383600061312f565b9050600073ffffffffffffffffffffffffffffffffffffffff168173ffffffffffffffffffffffffffffffffffffffff16146135905760006040517f73c6ac6e0000000000000000000000000000000000000000000000000000000081526004016135879190613979565b60405180910390fd5b505050565b6135a0838383613659565b61365457600073ffffffffffffffffffffffffffffffffffffffff168373ffffffffffffffffffffffffffffffffffffffff160361361557806040517f7e27328900000000000000000000000000000000000000000000000000000000815260040161360c9190613beb565b60405180910390fd5b81816040517f177e802f00000000000000000000000000000000000000000000000000000000815260040161364b9291906149c0565b60405180910390fd5b505050565b60008073ffffffffffffffffffffffffffffffffffffffff168373ffffffffffffffffffffffffffffffffffffffff161415801561371157508273ffffffffffffffffffffffffffffffffffffffff168473ffffffffffffffffffffffffffffffffffffffff1614806136d257506136d18484611ece565b5b8061371057508273ffffffffffffffffffffffffffffffffffffffff166136f883612054565b73ffffffffffffffffffffffffffffffffffffffff16145b5b90509392505050565b6000604051905090565b600080fd5b600080fd5b60007fffffffff0000000000000000000000000000000000000000000000000000000082169050919050565b6137638161372e565b811461376e57600080fd5b50565b6000813590506137808161375a565b92915050565b60006020828403121561379c5761379b613724565b5b60006137aa84828501613771565b91505092915050565b60008115159050919050565b6137c8816137b3565b82525050565b60006020820190506137e360008301846137bf565b92915050565b600063ffffffff82169050919050565b613802816137e9565b82525050565b600060208201905061381d60008301846137f9565b92915050565b600081519050919050565b600082825260208201905092915050565b60005b8381101561385d578082015181840152602081019050613842565b60008484015250505050565b6000601f19601f8301169050919050565b600061388582613823565b61388f818561382e565b935061389f81856020860161383f565b6138a881613869565b840191505092915050565b600060208201905081810360008301526138cd818461387a565b905092915050565b6000819050919050565b6138e8816138d5565b81146138f357600080fd5b50565b600081359050613905816138df565b92915050565b60006020828403121561392157613920613724565b5b600061392f848285016138f6565b91505092915050565b600073ffffffffffffffffffffffffffffffffffffffff82169050919050565b600061396382613938565b9050919050565b61397381613958565b82525050565b600060208201905061398e600083018461396a565b92915050565b61399d81613958565b81146139a857600080fd5b50565b6000813590506139ba81613994565b92915050565b600080604083850312156139d7576139d6613724565b5b60006139e5858286016139ab565b92505060206139f6858286016138f6565b9150509250929050565b60006bffffffffffffffffffffffff82169050919050565b613a2181613a00565b82525050565b6000602082019050613a3c6000830184613a18565b92915050565b60008060408385031215613a5957613a58613724565b5b6000613a67858286016138f6565b9250506020613a78858286016138f6565b9150509250929050565b600061ffff82169050919050565b613a9981613a82565b82525050565b6000602082019050613ab46000830184613a90565b92915050565b600080600060608486031215613ad357613ad2613724565b5b6000613ae1868287016139ab565b9350506020613af2868287016139ab565b9250506040613b03868287016138f6565b9150509250925092565b600060ff82169050919050565b613b2381613b0d565b82525050565b6000602082019050613b3e6000830184613b1a565b92915050565b6000613b4f82613938565b9050919050565b613b5f81613b44565b8114613b6a57600080fd5b50565b600081359050613b7c81613b56565b92915050565b600060208284031215613b9857613b97613724565b5b6000613ba684828501613b6d565b91505092915050565b600060208284031215613bc557613bc4613724565b5b6000613bd3848285016139ab565b91505092915050565b613be5816138d5565b82525050565b6000602082019050613c006000830184613bdc565b92915050565b613c0f816137b3565b8114613c1a57600080fd5b50565b600081359050613c2c81613c06565b92915050565b60008060408385031215613c4957613c48613724565b5b6000613c57858286016139ab565b9250506020613c6885828601613c1d565b9150509250929050565b613c7b81613b44565b82525050565b6000602082019050613c966000830184613c72565b92915050565b6000606082019050613cb16000830186613bdc565b613cbe6020830185613bdc565b613ccb6040830184613c72565b949350505050565b600080fd5b600080fd5b7f4e487b7100000000000000000000000000000000000000000000000000000000600052604160045260246000fd5b613d1582613869565b810181811067ffffffffffffffff82111715613d3457613d33613cdd565b5b80604052505050565b6000613d4761371a565b9050613d538282613d0c565b919050565b600067ffffffffffffffff821115613d7357613d72613cdd565b5b613d7c82613869565b9050602081019050919050565b82818337600083830152505050565b6000613dab613da684613d58565b613d3d565b905082815260208101848484011115613dc757613dc6613cd8565b5b613dd2848285613d89565b509392505050565b600082601f830112613def57613dee613cd3565b5b8135613dff848260208601613d98565b91505092915050565b60008060008060808587031215613e2257613e21613724565b5b6000613e30878288016139ab565b9450506020613e41878288016139ab565b9350506040613e52878288016138f6565b925050606085013567ffffffffffffffff811115613e7357613e72613729565b5b613e7f87828801613dda565b91505092959194509250565b60008060408385031215613ea257613ea1613724565b5b6000613eb0858286016138f6565b9250506020613ec185828601613b6d565b9150509250929050565b60008060408385031215613ee257613ee1613724565b5b6000613ef0858286016139ab565b9250506020613f01858286016139ab565b9150509250929050565b7f4e487b7100000000000000000000000000000000000000000000000000000000600052602260045260246000fd5b60006002820490506001821680613f5257607f821691505b602082108103613f6557613f64613f0b565b5b50919050565b7f4e487b7100000000000000000000000000000000000000000000000000000000600052601160045260246000fd5b6000613fa5826138d5565b9150613fb0836138d5565b9250828201905080821115613fc857613fc7613f6b565b5b92915050565b6000613fd9826138d5565b9150613fe4836138d5565b9250828202613ff2816138d5565b9150828204841483151761400957614008613f6b565b5b5092915050565b600061401b826138d5565b91507fffffffffffffffffffffffffffffffffffffffffffffffffffffffffffffffff820361404d5761404c613f6b565b5b600182019050919050565b7f4e487b7100000000000000000000000000000000000000000000000000000000600052603260045260246000fd5b7f4e487b7100000000000000000000000000000000000000000000000000000000600052601260045260246000fd5b6000819050919050565b6000819050919050565b60006140e56140e06140db846140b6565b6140c0565b6138d5565b9050919050565b6140f5816140ca565b82525050565b600060608201905061411060008301866140ec565b61411d6020830185613bdc565b61412a6040830184613bdc565b949350505050565b7f43616e206f6e6c79206d696e74203120746f6b656e207768656e20737065636960008201527f6679696e67204944000000000000000000000000000000000000000000000000602082015250565b600061418e60288361382e565b915061419982614132565b604082019050919050565b600060208201905081810360008301526141bd81614181565b9050919050565b7f546f6b656e2049442065786365656473206d617820737570706c790000000000600082015250565b60006141fa601b8361382e565b9150614205826141c4565b602082019050919050565b60006020820190508181036000830152614229816141ed565b9050919050565b7f546f6b656e20616c7265616479206d696e746564000000000000000000000000600082015250565b600061426660148361382e565b915061427182614230565b602082019050919050565b6000602082019050818103600083015261429581614259565b9050919050565b60006142b76142b26142ad846137e9565b6140c0565b6138d5565b9050919050565b6142c78161429c565b82525050565b60006060820190506142e260008301866140ec565b6142ef6020830185613bdc565b6142fc60408301846142be565b949350505050565b600081905092915050565b50565b600061431f600083614304565b915061432a8261430f565b600082019050919050565b600061434082614312565b9150819050919050565b7f4661696c656420746f20706179206d696e740000000000000000000000000000600082015250565b600061438060128361382e565b915061438b8261434a565b602082019050919050565b600060208201905081810360008301526143af81614373565b9050919050565b60006143c1826138d5565b91506143cc836138d5565b9250826143dc576143db614087565b5b828204905092915050565b60006040820190506143fc6000830185613bdc565b6144096020830184613bdc565b9392505050565b600061441b826138d5565b9150614426836138d5565b925082820390508181111561443e5761443d613f6b565b5b92915050565b7f4661696c656420746f2072657475726e206f6666657200000000000000000000600082015250565b600061447a60168361382e565b915061448582614444565b602082019050919050565b600060208201905081810360008301526144a98161446d565b9050919050565b7f4661696c656420746f2070617920726f79616c74696573000000000000000000600082015250565b60006144e660178361382e565b91506144f1826144b0565b602082019050919050565b60006020820190508181036000830152614515816144d9565b9050919050565b7f4661696c656420746f2072657475726e2070726576696f7573206f6666657200600082015250565b6000614552601f8361382e565b915061455d8261451c565b602082019050919050565b6000602082019050818103600083015261458181614545565b9050919050565b7f4661696c656420746f2070617920726f79616c7469657320666f72207265766f60008201527f6b65000000000000000000000000000000000000000000000000000000000000602082015250565b60006145e460228361382e565b91506145ef82614588565b604082019050919050565b60006020820190508181036000830152614613816145d7565b9050919050565b600081905092915050565b600061463082613823565b61463a818561461a565b935061464a81856020860161383f565b80840191505092915050565b60006146628285614625565b915061466e8284614625565b91508190509392505050565b7f416d6f756e742065786365656473206d617820737570706c7900000000000000600082015250565b60006146b060198361382e565b91506146bb8261467a565b602082019050919050565b600060208201905081810360008301526146df816146a3565b9050919050565b7f4e6f7420656e6f75676820746f6b656e7320617661696c61626c650000000000600082015250565b600061471c601b8361382e565b9150614727826146e6565b602082019050919050565b6000602082019050818103600083015261474b8161470f565b9050919050565b6000819050919050565b61476d614768826138d5565b614752565b82525050565b60008160601b9050919050565b600061478b82614773565b9050919050565b600061479d82614780565b9050919050565b6147b56147b082613958565b614792565b82525050565b60006147c7828761475c565b6020820191506147d7828661475c565b6020820191506147e782856147a4565b6014820191506147f7828461475c565b60208201915081905095945050505050565b6000614814826138d5565b915061481f836138d5565b92508261482f5761482e614087565b5b828206905092915050565b600060608201905061484f600083018661396a565b61485c6020830185613bdc565b614869604083018461396a565b949350505050565b600081519050919050565b600082825260208201905092915050565b600061489882614871565b6148a2818561487c565b93506148b281856020860161383f565b6148bb81613869565b840191505092915050565b60006080820190506148db600083018761396a565b6148e8602083018661396a565b6148f56040830185613bdc565b8181036060830152614907818461488d565b905095945050505050565b6000815190506149218161375a565b92915050565b60006020828403121561493d5761493c613724565b5b600061494b84828501614912565b91505092915050565b7f4661696c656420746f20706179206f776e657200000000000000000000000000600082015250565b600061498a60138361382e565b915061499582614954565b602082019050919050565b600060208201905081810360008301526149b98161497d565b9050919050565b60006040820190506149d5600083018561396a565b6149e26020830184613bdc565b939250505056fea26469706673582212206f84fbff821f3059cc490e8adcfa52fd94b426aa4b6dcd1aff2cd1c6fd82b7df64736f6c63430008140033697066733a2f2f62616679626569653378726832676e676b696e326a7235336362326e6e323461797832686e6532747a74776879796e75336d663633696a7a66616d697066733a2f2f62616679626569653378726832676e676b696e326a7235336362326e6e323461797832686e6532747a74776879796e75336d663633696a7a66616d2f75702d6f6e6c792e6a736f6e",
  "linkReferences": {},
  "deployedLinkReferences": {}
}